:020000040000FA
:060000000A128A11EF2F25
:10000800F300F201731C09280A280E287008F10071
:100018007108F2070310F00D0310F30C7308031DA9
:1000280016281728062872080800831203132708C1
:100038008039A8002808B1002708A8002807A900C7
:100048002908B800A61F29282A282B283814380878
:1000580003192F2830284028380A031D342835284A
:100068003D280030A7000030A6000030A500003071
:10007800A400A617A70148280030A7000030A60052
:100088000030A5000030A40023088039A800280803
:10009800B1062308A8002807A9002908B900A21F4B
:1000A8005628572858283914390803195C285D2818
:1000B8006D28390A031D612862286A280030A300C8
:1000C8000030A2000030A1000030A000A217A30158
:1000D80075280030A3000030A2000030A1000030D5
:1000E800A0002308220421042004031D7C287D2865
:1000F80096280030A7000030A6000030A500003088
:10010800A4008030A6047F30A7043108A80028087E
:10011800A7042708A3002608A2002508A100240890
:10012800A000F5293808031D9A289B28A428003028
:10013800A3000030A2000030A1000030A000F52983
:100148003808A800A9012908AB0039082802AA0024
:10015800031CAB032A087F3EB2002B080318013E9C
:10016800003EB3002708B0002608AF002508AE00FF
:100178002408AD000030A7000030A6000030A5001C
:100188000030A4000030B7000030B6000030B500E1
:100198000030B400B9011A2939080319D428D52820
:1001A800F5280130A8000310AD0DAE0DAF0DB00D50
:1001B800A80BD7280130A8000310A40DA50DA60D83
:1001C800A70DA80BE028B71FEA28EB28EC28241471
:1001D8000130A8000310B40DB50DB60DB70DA80B6E
:1001E800EE2823083002031D032922082F02031DCD
:1001F800032921082E02031D032920082D02031CB0
:1002080006290729162937172008AD022108031CDB
:10021800210FAE022208031C220FAF022308031C81
:10022800230FB0020130A8002808B9071A30390294
:10023800031C1F292029D02830082F042E042D0440
:100248000319272928294729341447290130A800E8
:100258000310A40DA50DA60DA70DA80B2C29B71FDB
:1002680036293729382924140130A8000310B40D81
:10027800B50DB60DB70DA80B3A29FF30B207031814
:10028800B30AFF30B307A61F4A294B292A29B90107
:10029800B71F4F2950296C29FF303405A800FF30BB
:1002A8003505A900FF303605AA007F303705AB00B9
:1002B8002B082A04290428040319632964296729B7
:1002C800B901B90A6C29241C6A296B296C2964298B
:1002D8003908031970297129A2290130A4070030AF
:1002E80003180130A507003003180130A6070030B5
:1002F80003180130A707271C82298329A22924086B
:10030800A8002508A9002608AA002708AB00013084
:10031800AC002B0DAB0CAA0CA90CA80CAC0B8D29AE
:100328002B08A7002A08A6002908A5002808A40069
:100338000130B2070318B30A0030B3073308803A14
:10034800FF0080307F02031DAB29FF303202031CFF
:10035800AE29AF29BD29FF3083120313B200003044
:10036800B3000030A7000030A6000030A500003020
:10037800A400831203133308803AFF0080307F0201
:10038800031DC829013032020318CB29CC29D929E9
:1003980083120313B201B3010030A7000030A60096
:1003A8000030A5000030A400B10183120313320805
:1003B800A8002808B800381CE229E329E529A6176F
:1003C800E9297F30A8002808A6053808A8000310E6
:1003D800280CA9002908A7003108A8002808A704A4
:1003E8008D2808007308803983120313A0002008A1
:1003F800F8007308A0002007A1002108FA00F21FE6
:10040800062A072A082A7A147A0803190C2A0D2AB8
:100418001D2A7A0A031D112A122A1A2A0030F3000B
:100428000030F2000030F1000030F000F217F30164
:10043800252A0030F3000030F2000030F1000030CF
:10044800F00077088039A0002008F90079087806BC
:1004580003192F2A302A312A78177708A000200795
:10046800A1002108F900F61F3A2A3B2A3C2A7914F0
:1004780079080319402A412A512A790A031D452A75
:10048800462A4E2A0030F7000030F6000030F5000A
:100498000030F400F617F701592A0030F700003051
:1004A800F6000030F5000030F4007A0879020318ED
:1004B8005E2A5F2AA32A781F622A632A672A803065
:1004C800A0002008F8067A08A0002008FB00790898
:1004D800A0002008FA007B08A0002008F900700896
:1004E800A0002008FB007408A0002008F0007B088A
:1004F800A0002008F4007108A0002008FB0075087F
:10050800A0002008F1007B08A0002008F500720870
:10051800A0002008FB007608A0002008F2007B0855
:10052800A0002008F6007308A0002008FB00770848
:10053800A0002008F3007B08A0002008F700FB01BA
:100548007908A000A1012108A3007A082002A200CE
:10055800031CA3032308803AFF0080307F02031D99
:10056800B72A1A302202031CBA2ABB2AFC2A7308AB
:10057800720471047004031DC22AC42A0130C52AFA
:10058800003083120313A0002008FB000030F300A2
:100598000030F2000030F1000030F0007908A000CF
:1005A8002008FA00022B7B1CDA2ADB2AE62A7B08C1
:1005B80083120313A0000310200C0138A1002108A6
:1005C800FB00E82A0310FB0C701CEB2AEC2AED2A2E
:1005D800FB17013083120313A000730DF30CF20C08
:1005E800F10CF00CA00BF12A0130A0002008FA074A
:1005F80079087A02031C012B022BD72A781B052BBA
:10060800062B552B7A08031D0A2B0B2B142B0030B5
:10061800F3000030F2000030F1000030F0008D2CC3
:100628007408F007750803110318013E03191D2B00
:10063800F107760803110318013E0319242BF2076A
:10064800770803110318013E03192B2BF307731CBA
:100658002E2B2F2B0D2C7B1C322B332B3E2B7B0868
:1006680083120313A0000310200C0138A1002108F5
:10067800FB00402B0310FB0C701C432B442B452B19
:10068800FB17013083120313A000730DF30CF20C57
:10069800F10CF00CA00B492B0130A0002008FA0740
:1006A8000D2C7308803AFF007708803A7F02031DFB
:1006B800672B76087202031D672B75087102031DEC
:1006C800672B7408700203186A2B6B2BC52BFF303D
:1006D80083120313A000FF30A100FF30A200FF30F7
:1006E800A3007408A4007508A5007608A60077087A
:1006F800A7007008A4027108031C710F842B852BB6
:10070800A5027208031C720F8A2B8B2BA602730892
:10071800031C730F902B912BA7022408A007250810
:100728000318250F982B992BA10726080318260FC5
:100738009E2B9F2BA20727080318270AA307230825
:10074800F3002208F2002108F1002008F0008030B0
:10075800A0002008F806FB09FB0A7B08031DB52B3F
:10076800B62BD32B0130F007003003180130F10706
:10077800003003180130F207003003180130F30786
:10078800D32B7408F0027508031C750FF102760864
:10079800031C760FF2027708031C770FF302730825
:1007A800720471047004031DDA2BDB2B092C7B08FF
:1007B800031DDF2BE02B092C0030F3000030F20082
:1007C8000030F1000030F0008D2C0130831203134B
:1007D800A0000310F00DF10DF20DF30DA00BED2BA1
:1007E800FB1FF72BF82BF92B70147B1CFC2BFD2B14
:1007F800002C0314FB0D022C0310FB0D7A080319BF
:10080800062C072C092C0130FA02F21F0C2C0D2C97
:10081800E92BF901FB1F112C122C202C7B087F39A6
:100828000319172C182C1B2CF901F90A202C701C01
:100838001E2C1F2C202C182C79080319242C252C4D
:100848005B2C0130F007003003180130F10700304D
:1008580003180130F207003003180130F307731C46
:10086800362C372C5B2C700883120313A0007108F8
:10087800A1007208A2007308A3000130A400230D90
:10088800A30CA20CA10CA00CA40B432C2308F3006E
:100898002208F2002108F1002008F0007A0A031962
:1008A800562C572C5B2C0130A0002008FA077A0A36
:1008B80003195F2C602C652C7A08031D642C652CA9
:1008C800732C0030F3000030F2000030F1000030EB
:1008D800F0007A08031D712C722C732CF8017A1C15
:1008E800762C772C792CF2177F2C7F308312031308
:1008F800A0002008F2057A0883120313A000031051
:10090800200CA1002108F300F81F8B2C8C2C8D2CB7
:10091800F31708008312031333088039B800380826
:10092800BD003308B8003807B9003908C300B21F42
:100938009E2C9F2CA02C431443080319A42CA52CEF
:10094800B42C430A031DA92CAA2CB22C0030B300E6
:100958000030B2000030B1000030B000B217BC2C3B
:100968000030B3000030B2000030B1000030B000F9
:1009780037088039B8003808BD063708B800380786
:10098800B9003908C200B61FCA2CCB2CCC2C421493
:1009980042080319D02CD12CE02C420A031DD52C77
:1009A800D62CDE2C0030B7000030B6000030B50081
:1009B8000030B400B617E82C0030B7000030B6009D
:1009C8000030B5000030B40042080319EC2CED2CBF
:1009D800F22C4308031DF12CF22CFB2C0030B30041
:1009E8000030B2000030B1000030B000EE2F300807
:1009F800B8003808F00036080A168A1139260A1293
:100A08008A11710883120313C9007008C8004808C6
:100A1800B800B901BA01BB013B08C1003A08C000DF
:100A28003908BF003808BE004908B800B901BA0142
:100A3800BB013B08C7003A08C6003908C50038089A
:100A4800C4003108B8003808F00035080A168A11C1
:100A580039260A128A11710883120313C900700813
:100A6800C8004808B800B901BA01BB013808BE0778
:100A7800390803110318013E0319432DBF073A082B
:100A880003110318013E03194A2DC0073B0803113F
:100A98000318013E0319512DC1074908B800B901CF
:100AA800BA01BB013808C407390803110318013E0D
:100AB80003195F2DC5073A0803110318013E0319EE
:100AC800662DC6073B0803110318013E03196D2D57
:100AD800C7073208B8003808F00034080A168A1127
:100AE80039260A128A11710883120313C900700883
:100AF800C8004808B800B901BA01BB013808BE07E8
:100B0800390803110318013E03198B2DBF073A0852
:100B180003110318013E0319922DC0073B08031166
:100B28000318013E0319992DC1074908B800B901F6
:100B3800BA01BB013808C407390803110318013E7C
:100B48000319A72DC5073A0803110318013E031915
:100B5800AE2DC6073B0803110318013E0319B52D36
:100B6800C7070830B8000310BE0DBF0DC00DC10D7A
:100B7800B80BB72D3108B8003808F00034080A1649
:100B88008A1139260A128A11710883120313C900BF
:100B98007008C8004808B8004908B900BA01BB0184
:100BA8003808BE07390803110318013E0319DD2D63
:100BB800BF073A0803110318013E0319E42DC007C3
:100BC8003B0803110318013E0319EB2DC107300838
:100BD800B8003808F00035080A168A1139260A12B2
:100BE8008A11710883120313C9007008C8004808E5
:100BF800B8004908B900BA01BB013808BE0739086E
:100C080003110318013E03190A2EBF073A080311FE
:100C18000318013E0319112EC0073B0803110318DE
:100C2800013E0319182EC1070830B8000310BE0D85
:100C3800BF0DC00DC10DB80B1A2E3008B80038080A
:100C4800F00034080A168A1139260A128A11710826
:100C580083120313C9007008C8004808B80049087F
:100C6800B900BA01BB013808BE07390803110318D7
:100C7800013E0319402EBF073A0803110318013E2D
:100C88000319472EC0073B0803110318013E031937
:100C98004E2EC1073108B8003808F00036080A1689
:100CA8008A1139260A128A11710883120313C9009E
:100CB8007008C8004808B8004908B900BA01BB0163
:100CC8003808C407390803110318013E03196D2EAB
:100CD800C5073A0803110318013E0319742EC60705
:100CE8003B0803110318013E03197B2EC70732087E
:100CF800B8003808F00035080A168A1139260A1291
:100D08008A11710883120313C9007008C8004808C3
:100D1800B8004908B900BA01BB013808C407390846
:100D280003110318013E03199A2EC5073A08031147
:100D38000318013E0319A12EC6073B080311031827
:100D4800013E0319A82EC7073208B8003808F0007A
:100D580036080A168A1139260A128A11710883126E
:100D68000313C9007008C8004808B8004908B9004A
:100D7800BA01BB0108300310B80DB90DBA0DBB0D8F
:100D8800FF3E031DBF2E3808C40739080311031896
:100D9800013E0319D02EC5073A0803110318013E76
:100DA8000319D72EC6073B0803110318013E031980
:100DB800DE2EC7073E08B8003F08B9004008BA0051
:100DC8004108BB0018300310BB0CBA0CB90CB80CA6
:100DD800FF3E031DE72E3808C4073908031103181E
:100DE800013E0319F82EC5073A0803110318013EFE
:100DF8000319FF2EC6073B0803110318013E031908
:100E0800062FC7070830B8000310BE0DBF0DC00D70
:100E1800C10DB80B082F43084207B800B901B90D36
:100E28003808823EC80039080318013EFF3EC90051
:100E38003A2F0130B8000310C40DC50DC60DC70DFB
:100E4800B80B1F2FC11F292F2A2F2B2F4414013015
:100E5800B8000310BE0DBF0DC00DC10DB80B2D2F6E
:100E6800FF30C8070318C90AFF30C907C61F3D2F3E
:100E78003E2F1D2FC201C11F422F432F5F2FFF306E
:100E88003E05B800FF303F05B900FF304005BA0005
:100E98007F304105BB003B083A0439043804031984
:100EA800562F572F5A2FC201C20A5F2F441C5D2F9D
:100EB8005E2F5F2F572F42080319632F642F952F3A
:100EC8000130C407003003180130C507003003188B
:100ED8000130C607003003180130C707471C752FBB
:100EE800762F952F4408B8004508B9004608BA007F
:100EF8004708BB000130BC003B0DBB0CBA0CB90C59
:100F0800B80CBC0B802F3B08C7003A08C60039084C
:100F1800C5003808C4000130C8070318C90A0030E2
:100F2800C9074908803AFF0080307F02031D9E2FC1
:100F3800FF304802031CA12FA22FAD2F7F30831250
:100F48000313C7008030C6000030C5000030C4005D
:100F5800E22F831203134908803AFF0080307F0292
:100F6800031DB82F013048020318BB2FBC2FC82F10
:100F7800003083120313C7000030C6000030C500DC
:100F88000030C400BD01E22F831203134808B800E3
:100F98003808C300FF30C405FF30C5057F30C605DB
:100FA8000030C705431CD92FDA2FDB2FC61743089B
:100FB800B8000310380CB9003908C7003D08B8005C
:100FC8003808C7044708B3004608B2004508B1000E
:100FD8004408B000080083120313EB01EC018313EB
:100FE800A0308400B4300A128A1508200A128A1127
:080FF80083010A128A157A2D0B
:1010100064008001840A04060319003404060928C8
:1010200083120313A101F31F162817282428F0099F
:10103000F109F209F309F00A0319F10A0319F20A96
:101040000319F30AA101A10AF71F27282828372826
:10105000F409F509F609F709F40A0319F50A031961
:10106000F60A0319F70A0130F8007808A1060030E3
:10107000A5000030A4000030A3000030A2007308D7
:101080007204710470040319462847289428A001AB
:10109000A00A57280130F8000310F00DF10DF20DF1
:1010A000F30DF80B4C280130F8007808A007F31F67
:1010B0005A285B284A280130F8000310A20DA30D1E
:1010C000A40DA50DF80B5D2873087702031D722887
:1010D00072087602031D722871087502031D7228BA
:1010E00070087402031C7528762885287008F4029D
:1010F0007108031C710FF5027208031C720FF602CF
:101100007308031C730FF702221401300310F30C51
:10111000F20CF10CF00CFF3E031D86280130A002FA
:10112000031D932894285B282108031998289928DF
:10113000A428A209A309A409A509A20A0319A30ABC
:101140000319A40A0319A50A2508F3002408F200CC
:101150002308F1002208F000080083120313580846
:10116000CD005708CC005608CB005508CA000A1617
:101170008A1184270A128A15831203134A08D90098
:101180005908E20062080A168A1126270A128A15EF
:10119000831203135808AF005708AE005608AD007D
:1011A0005508AC006208D900DA01DB01DC015C08FB
:1011B000F3005B08F2005A08F1005908F000013012
:1011C0000A128A15ED210A128A1573088312031375
:1011D000AB007208AA007108A9007008A8000A16DE
:1011E0008A1115260A128A15831203132B08B700D9
:1011F0002A08B6002908B5002808B4004130B30019
:101200002030B2000030B1000030B0000A128A1164
:101210008E240A128A15831203133308CD00320874
:10122000CC003108CB003008CA000A168A11842786
:101230000A128A15831203134A08DD005D08E400D0
:101240006408D9005908E30063080A168A112627A2
:101250000A128A1583120313D9005908E1000A30D3
:10126000D9005908F000630864020A128A110420A8
:101270000A128A1583120313DA005A08E40064087C
:10128000D9005908E00060080A168A1126270A12B8
:101290008A15831203136108080083120313580888
:1012A000CD005708CC005608CB005508CA000A16D6
:1012B0008A1184270A128A15831203134A08D90057
:1012C0005908E20062080A168A1126270A128A15AE
:1012D00083120313D9005908E1005808AF005708DA
:1012E000AE005608AD005508AC006208D900DA011E
:1012F000DB01DC015C08F3005B08F2005A08F10036
:101300005908F00001300A128A15ED210A128A15D7
:10131000730883120313AB007208AA007108A900B6
:101320007008A8000A168A1115260A128A15831257
:1013300003132B08B7002A08B6002908B5002808AF
:10134000B4004130B3002030B2000030B1000030B2
:10135000B0000A128A118E240A128A15831203130E
:101360003308CD003208CC003108CB003008CA0069
:101370000A168A1184270A128A15831203134A084F
:10138000DD005D08E4006408D9005908E300630843
:101390000A168A1126270A128A150A3083120313A5
:1013A000D9005908F000630864020A128A11042067
:1013B0000A128A1583120313DA005A08E40064083B
:1013C000D9005908E00060080A168A1126270A1277
:1013D0008A158312031361080800F80078080319BE
:1013E000F229F329072AF31FF629F729072A70099A
:1013F000FA007109FB007209FC007309FD00FA0A8A
:101400000319FB0A0319FC0A0319FD0A0F2A7308C2
:10141000FD007208FC007108FB007008FA007308F8
:10142000720471047004031D162A172A202A003042
:10143000F3000030F2000030F1000030F000A62A86
:101440009630F4007408F900322A0130F400740870
:10145000F90701300310FD0CFC0CFB0CFA0CFF3EED
:10146000031D2A2AFE307D05031D372A382A252A26
:10147000542A0130F4007408F9070130FA070030EB
:1014800003180130FB07003003180130FC0700305F
:1014900003180130FD0701300310FD0CFC0CFB0CA0
:1014A000FA0CFF3E031D4C2AFF307D05031D592A0F
:1014B0005A2A392A662A0130F9020130F400031051
:1014C000FA0DFB0DFC0DFD0DF40B5F2AFC1B692AC8
:1014D0006A2A702A0230790203186F2A702A5B2A5E
:1014E0007918732A742A7C2AFF30FA05FF30FB052D
:1014F0007F30FC05FF30FD050310F90C7908F4007E
:10150000F501F601F70118300310F40DF50DF60D95
:10151000F70DFF3E031D842A7408FA047508FB04C6
:101520007608FC047708FD0478080319982A992A9C
:101530009E2AF31F9C2A9D2A9E2AFD177D08F300F0
:101540007C08F2007B08F1007A08F00008008312A2
:1015500003132608AA002708AB002808AC002908B6
:10156000AD0006300310AA0DAB0DAC0DAD0DFF3E66
:10157000031DB22A2D08F3002C08F2002B08F100FD
:101580002A08F0002608AE002708AF002808B0009F
:101590002908B10006300310AE0DAF0DB00DB10D2E
:1015A000FF3E031DCB2A0030B2000930B3003D30AE
:1015B000B4000030B5002E08B2022F08031C2F0F14
:1015C000E22AE32AB3023008031C300FE82AE92A92
:1015D000B4023108031C310FEE2AEF2AB502350898
:1015E000F7003408F6003308F5003208F4000A1258
:1015F0008A1510200A128A157108FA007008F9007D
:1016000001307A02003003197902031C082B092BE0
:10161000652B831203132608AA002708AB002808AD
:10162000AC002908AD0004300310AA0DAB0DAC0DC1
:10163000AD0DFF3E031D142B2D08F3002C08F20006
:101640002B08F1002A08F0002608AE002708AF009A
:101650002808B0002908B10004300310AE0DAF0D0A
:10166000B00DB10DFF3E031D2D2B0030B20009302F
:10167000B3003D30B4000030B5002E08B2022F0890
:10168000031C2F0F442B452BB3023008031C300FD3
:101690004A2B4B2BB4023108031C310F502B512B1A
:1016A000B5023508F7003408F6003308F5003208B3
:1016B000F4000A128A1510200A128A157108FA001D
:1016C0007008F90083160313181501307A020030F0
:1016D0000319790203186D2B6E2B802B7908831662
:1016E0000313990018128312031398178316031318
:1016F00087170717831203131816831603139816F8
:101700000800831203135808CD005708CC00560870
:10171000CB005508CA000A168A1184270A128A15B6
:10172000831203134A08D9005908E10061080A1618
:101730008A1126270A128A15413083120313B30037
:101740002030B2000030B1000030B0006108D90094
:10175000DA01DB01DC015C08F3005B08F2005A08E7
:10176000F1005908F00001300A128A15ED210A1221
:101770008A15730883120313AB007208AA0071085C
:10178000A9007008A8005808AF005708AE00560816
:10179000AD005508AC000A168A1115260A128A15E2
:1017A000831203132B08B7002A08B6002908B500D6
:1017B0002808B4000A128A118E240A128A1583128C
:1017C00003133308E6003208E5003108E40030086E
:1017D000E3006608CD006508CC006408CB00630810
:1017E000CA000A168A1184270A128A158312031363
:1017F0004A08D9005908E20062080A168A11262709
:101800000A128A15413083120313B3002030B2004C
:101810000030B1000030B0006208D900DA01DB010D
:10182000DC015C08F3005B08F2005A08F10059087B
:10183000F00001300A128A15ED210A128A15730888
:1018400083120313AB007208AA007108A900700884
:10185000A8006608AF006508AE006408AD00630824
:10186000AC000A168A1115260A128A158312031370
:101870002B08B7002A08B6002908B5002808B400CC
:101880000A128A118E240A128A158312031333084E
:10189000E6003208E5003108E4003008E30066089D
:1018A000CD006508CC006408CB006308CA000A16A6
:1018B0008A1184270A128A15831203134A08D90051
:1018C0005908DF005F080A168A1126270A128A15AE
:1018D00083120313D9005908E00060080800F300E0
:1018E000831203131F149F141F083F3940389F00B1
:1018F000831603131F129F12312D8316031708142A
:10190000C330831203139F05831603130514692D37
:10191000831603178814831203131F08C33904386E
:101920009F00831603138514692D8316031708156A
:10193000831203131F08C33908389F00831603134B
:101940000515692D831603178815831203131F08C5
:10195000C3390C389F00831603138515692D831630
:1019600003170816831203131F08C33910389F008A
:10197000831603138516692D8316031788168312A1
:1019800003131F08C33914389F0083160313091467
:10199000692D831603170817831203131F08C33911
:1019A00018389F00831603138914692D83160317B3
:1019B0008817831203131F08C3391C389F0083162E
:1019C00003130915692D83160317091483120313D2
:1019D0001F08C33920389F00831603130615692D8D
:1019E000831603178914831203131F08C33924387D
:1019F0009F00831603138615692D83160317091597
:101A0000831203131F08C33928389F00831603135A
:101A10008614692D831603178915831203131F0873
:101A2000C3392C389F00831603130616692D8316BD
:101A300003170916831203131F08C33930389F0098
:101A4000831603130614692D831603178916831250
:101A500003131F08C33934389F00831603138616F7
:101A6000692D7308F100F2017208003A0319392D4B
:101A7000692D7108003A03197D2C013A0319882C4D
:101A8000033A0319952C013A0319A22C073A0319BA
:101A9000AF2C013A0319BC2C033A0319C92C013AA3
:101AA0000319D62C0F3A0319E32C013A0319F02C31
:101AB000033A0319FD2C013A03190A2D073A0319B9
:101AC000172D013A0319242D692D9F13792D9F1786
:101AD000792D7008F100F2017208003A0319712D96
:101AE000792D7108003A0319652D013A0319672D04
:101AF000792D0800831603178901880183160313C3
:101B0000850186018701F0010C300A128A156F24C5
:101B10000A128A15F0010A300A128A156F240A1275
:101B20008A150A168A11E0260A128A1500308312D5
:101B30000313A9000030A8002530A7008030A600BC
:101B40000A128A15A7220A128A15B43084000530B9
:101B5000FF0083138001840AFF0BA92DB930840094
:101B60000530FF008001840AFF0BB22D831203139E
:101B70001F08C33928389F00A53083120313E700DC
:101B8000E70BC02DC32D831203139F149F18C92D7B
:101B9000CA2DC62D1E08E700670883160313B3007D
:101BA000423083120313A3004C30A2000030A10086
:101BB0000030A00083160313330883120313E700D9
:101BC000E801E901EA016A08F3006908F20068081F
:101BD000F1006708F00001300A128A15ED210A129F
:101BE0008A15730883120313A7007208A6007108F0
:101BF000A5007008A4000A128A1119200A128A1579
:101C000083120313230883160313B10083120313F3
:101C1000220883160313B0008312031321088316CE
:101C20000313AF0083120313200883160313AE00BF
:101C3000831203130C131F08C33930389F00A530DB
:101C400083120313E700E70B232E262E83120313C0
:101C50009F149F182C2E2D2E292E1E08E700670892
:101C600083160313B200423083120313A3004C30D7
:101C7000A2000030A1000030A00083160313320838
:101C800083120313E700E801E901EA016A08F3009F
:101C90006908F2006808F1006708F00001300A12D4
:101CA0008A15ED210A128A15730883120313A700FF
:101CB0007208A6007108A5007008A4000A128A1113
:101CC00019200A128A15831203132308831603139B
:101CD000AD0083120313220883160313AC00831292
:101CE0000313210883160313AB0083120313200888
:101CF00083160313AA00831203130C130230E700A8
:101D00006708F40001300A168A11D9250A128A15CB
:101D10000130F3008030F4000A168A119E260A1260
:101D20008A15073083120313E7006708F4000130B7
:101D30000A168A11D9250A128A150530F300803057
:101D4000F4000A168A119E260A128A150C30831294
:101D50000313E7006708F40001300A168A11D92539
:101D60000A128A150930F3008030F4000A168A112D
:101D70009E260A128A15F401F40A02300A168A1104
:101D8000D9250A128A158316031331088312031307
:101D9000D80083160313300883120313D700831669
:101DA00003132F0883120313D600831603132E0880
:101DB00083120313D5000A128A154D210A128A15BF
:101DC00083120313E700670883160313B4002E3051
:101DD00083120313E700670883160313B500310865
:101DE00083120313D80083160313300883120313DE
:101DF000D700831603132F0883120313D60083160C
:101E000003132E0883120313D5000A128A15AD207E
:101E10000A128A1583120313E70067088316031357
:101E2000B600310883120313D80083160313300859
:101E300083120313D700831603132F08831203138F
:101E4000D600831603132E0883120313D5000A123B
:101E50008A1581230A128A1583120313E700670883
:101E600083160313B700B430F3000030F4000A16F1
:101E70008A119E260A128A15063083120313E70080
:101E80006708F40002300A168A11D9250A128A1549
:101E9000831603132D0883120313D800831603132C
:101EA0002C0883120313D700831603132B08831205
:101EB0000313D600831603132A0883120313D500D5
:101EC0000A128A154D210A128A1583120313E7009C
:101ED000670883160313B9002E3083120313E7003B
:101EE000670883160313BA002D0883120313D80062
:101EF000831603132C0883120313D70083160313CE
:101F00002B0883120313D600831603132A088312A7
:101F10000313D5000A128A15AD200A128A158312FE
:101F20000313E700670883160313BB002D08831211
:101F30000313D800831603132C0883120313D7004E
:101F4000831603132B0883120313D600831603137F
:101F50002A0883120313D5000A128A1581230A1254
:101F60008A1583120313E700670883160313BC0066
:101F7000B930F3000030F4000A168A119E260A12C6
:101F80008A150B3083120313E9002630E8005D3018
:101F9000E700E70BC92FE80BC92FE90BC92F831600
:101FA0000313310883120313CD0083160313300883
:101FB00083120313CC00831603132F088312031319
:101FC000CB00831603132E0883120313CA000A16CC
:101FD0008A1184270A128A15831203134A080A16E3
:101FE0008A11C4250A128A158316031332080A16A9
:101FF0008A11C4250A128A15B62D0A128A110028E0
:10200000FF1B0A2883137F1883170008840A03190B
:10201000FF0A080010308A000408840A820700348E
:10202000503431343A340034503432343A34003499
:08203000503433343A3400341B
:102B5E00F20083120313871472080A168A11602674
:102B6E000A168A118312031307140D30F100F10BAC
:102B7E00BE2D8312031307100800F20083160313F1
:102B8E00981CCA2DCB2DC52D7208831203139900E4
:102B9E008230F100DD30F000F00BD32DF10BD32D90
:102BAE00D82D0800F5007503031DDE2DDF2DE72D52
:102BBE0074087F3E0A168A11F5250A168A11F42D1D
:102BCE0002307506031DEC2DED2DF42D7408BF3E5D
:102BDE000A168A11F5250A168A110800F3008312C7
:102BEE000313871073080A168A1160260A168A11B3
:102BFE008312031307140730F2007D30F100F10B3E
:102C0E00062EF20B062E831203130710C730F100A7
:102C1E00102EF10B0F2E132E142E0800803083125F
:102C2E000313AB062F08F3002E08F2002D08F10057
:102C3E002C08F0002B08F7002A08F6002908F500EA
:102C4E002808F4000A128A11F6210A168A1173084E
:102C5E0083120313AB007208AA007108A900700852
:102C6E00A8000800F800F401F5017008F200F30165
:102C7E007208F6007308F700781C462E472E4D2E6C
:102C8E007608F4070318F50A7708F50701300310E4
:102C9E00F60DF70DFF3E031D4E2E0310F80C7808AF
:102CAE00031D5A2E5B2E432E7508F1007408F0009A
:102CBE000800F000701C642E652E692E831203131B
:102CCE0005146C2E831203130510F01C6F2E702E3C
:102CDE00722E8514732E8510701D762E772E792EFA
:102CEE0005157A2E0511F01D7D2E7E2E802E851552
:102CFE00812E8511701E842E852E872E0516882E08
:102D0E000512F01E8B2E8C2E8E2E85168F2E851272
:102D1E00701F922E932E952E0517962E0513F01FCB
:102D2E00992E9A2E9C2E85179D2E85130800F8013C
:102D3E00F901C32E78087307F6007408F50003181E
:102D4E00F50AF81FAB2EF5037508F7007708831206
:102D5E000313FF00760884000A168A1100200A1653
:102D6E008A110A168A11AF250A168A110130F80740
:102D7E000318F90A0030F90778087307F60074088B
:102D8E00F5000318F50AF81FCD2EF5037508F700A8
:102D9E00770883120313FF00760884000A168A113F
:102DAE0000200A168A11003A031DDE2EDF2EA12EF8
:102DBE0008001430F5007930F400F40BE42EF50B16
:102DCE00E42EE92E30300A168A11F5250A168A11DC
:102DDE000730F5007D30F400F40BF32EF50BF32ED7
:102DEE0030300A168A11F5250A168A113530F4008C
:102DFE00F40BFF2E30300A168A11F5250A168A11A9
:102E0E0038300A168A11F5250A168A1110300A165C
:102E1E008A11F5250A168A1101300A168A11F5252E
:102E2E000A168A1106300A168A11F5250A168A1113
:102E3E000F300A168A11F5250A168A110800F200BB
:102E4E005A2F3030F0007008F300822F3130F0002E
:102E5E007008F300822F3230F0007008F300822FDA
:102E6E003330F0007008F300822F3430F000700819
:102E7E00F300822F3530F0007008F300822F3630C9
:102E8E00F0007008F300822F3730F0007008F30066
:102E9E00822F3830F0007008F300822F3930F000A6
:102EAE007008F300822F7208F000F1017108003AE9
:102EBE000319622F822F7008003A0319282F013A46
:102ECE0003192D2F033A0319322F013A0319372F05
:102EDE00073A03193C2F013A0319412F033A0319FC
:102EEE00462F013A03194B2F0F3A0319502F013A6F
:102EFE000319552F822F7308080003108312031332
:102F0E004C0D4D0DCE004E08D4005408031D902FCD
:102F1E00912F9A2F0030CD000030CC000030CB0026
:102F2E000030CA00FF2F4A08CE004B08CF004C08D5
:102F3E00D0004D08D1001F300310D10CD00CCF0C97
:102F4E00CE0CFF3E031DA32F4E08D2005208D30015
:102F5E00CC17FF30CA05FF30CB05FF30CC05003053
:102F6E00CD059630D402D41FBD2FBE2FD82F5408B6
:102F7E00803A973E0318C42FC52FC62F912F0130CC
:102F8E000310CD0CCC0CCB0CCA0CFF3E031DC72F6F
:102F9E000130CE004E08D407031DD62FD72FC62FD3
:102FAE00EF2F20305402031CDD2FDE2FEA2F912F3E
:102FBE000130CE000310CA0DCB0DCC0DCD0DCE0BB6
:102FCE00E12F0130D4025408031DEE2FEF2FDF2F17
:102FDE0053080319F32FF42FFF2FCA09CB09CC097D
:102FEE00CD09CA0A0319CB0A0319CC0A0319CD0A53
:022FFE000800C9
:04400E00D4E0FFFFFC
:00000001FF
