:020000040000FA
:060000000A128A11FC2F18
:100E9C008316031388010A128A11B1270A128A11C8
:100EAC000A128A110028F3008312031389107308A5
:100EBC000A128A1173270A128A1183120313091456
:100ECC000630F2003030F100F10B6A2FF20B6A2F72
:100EDC0000008312031309100800F000701C772F18
:100EEC00782F7C2F8312031305147F2F8312031387
:100EFC000510F01C822F832F852F8514862F8510CB
:100F0C00701D892F8A2F8C2F05158D2F0511F01D23
:100F1C00902F912F932F8515942F8511701E972F3D
:100F2C00982F9A2F05169B2F0512F01E9E2F9F2F80
:100F3C00A12F8516A22F8512701FA52FA62FA82FC3
:100F4C000517A92F0513F01FAC2FAD2FAF2F851749
:100F5C00B02F8513080000300A128A1173270A1269
:100F6C008A111A30F500F830F400F40BBB2FF50B96
:100F7C00BB2F000030300A128A1159270A128A112D
:100F8C000730F5007D30F400F40BCA2FF50BCA2F97
:100F9C0030300A128A1159270A128A110F30F500C3
:100FAC004730F400F40BD82FF50BD82FDD2F303051
:100FBC000A128A1159270A128A1138300A128A1118
:100FCC0059270A128A1108300A128A1159270A1253
:100FDC008A1101300A128A1159270A128A11063015
:100FEC000A128A1159270A128A11080083010A125F
:040FFC008A114E2FD9
:04400E00D4E0FFFFFC
:00000001FF
