:020000040000FA
:060000000A128A11EC2F28
:10000A00730872047104700403190C280D280F2850
:10001A008030F306080083160317890188018316C6
:10002A000313850186018701F0010C300A128A1533
:10003A0035200A128A11F0010A300A128A1535206F
:10004A000A128A110A168A1518240A128A118312A8
:10005A0003131F08C33928389F00A53083160313DA
:10006A00C300C30B36283928831203139F149F1821
:10007A003F2840283C281E0883160313C300430860
:10008A00DE00423083120313A3004C30A20000307A
:10009A00A1000030A000831603135E08C300C40148
:1000AA00C501C6014608F3004508F2004408F100FC
:1000BA004308F00001300A168A1546270A128A11E7
:1000CA00730883120313A7007208A6007108A5001B
:1000DA007008A4000A168A1190210A128A11831242
:1000EA000313230883160313DC0083120313220865
:1000FA0083160313DB0083120313210883160313E9
:10010A00DA0083120313200883160313D90083121B
:10011A0003130C131F08C33930389F00A530831608
:10012A000313C300C30B97289A28831203139F143F
:10013A009F18A028A1289D281E0883160313C30010
:10014A004308DD00423083120313A3004C30A2009F
:10015A000030A1000030A000831603135D08C3001D
:10016A00C401C501C6014608F3004508F200440867
:10017A00F1004308F00001300A168A1546270A12D0
:10018A008A11730883120313A7007208A600710864
:10019A00A5007008A4000A168A1190210A128A1171
:1001AA0083120313230883160313D800831203133D
:1001BA00220883160313D700831203132108831618
:1001CA000313D60083120313200883160313D500E2
:1001DA00831203130C130A128A1507200A128A11B2
:1001EA00023083160313C3004308F40001300A16D1
:1001FA008A1595220A128A119630F3008030F4008B
:10020A000A168A1592230A128A11073083160313D3
:10021A00C3004308F40001300A168A1595220A120F
:10022A008A119A30F3008030F4000A168A15922354
:10023A000A128A110C3083160313C3004308F40010
:10024A0001300A168A1595220A128A119E30F30085
:10025A008030F4000A168A1592230A128A11913004
:10026A0083160313C3004308A0005C08A4005B08BC
:10027A00A3005A08A2005908A100C7300A128A111D
:10028A0094210A128A11F401F40A02300A168A1514
:10029A0095220A128A11C730F3000030F4000A16B8
:1002AA008A1592230A128A11913083160313C30006
:1002BA004308A0005808A4005708A3005608A20043
:1002CA005508A100CE300A128A1194210A128A1105
:1002DA00063083160313C3004308F40002300A16DB
:1002EA008A1595220A128A11CE30F3000030F400E2
:1002FA000A168A1592230A128A110B3083160313DF
:10030A00C5002630C4005D30C300C30B8A29C40B64
:10031A008A29C50B8A292C280A128A1100288316D1
:10032A000313BB00A130A5002508AE00D52F253048
:10033A0042060319A129A229AE294208A5003B08B1
:10034A0084002508831380000130A5002508BB0717
:10035A00D52FAF01B001200884000A168A150A2099
:10036A000A128A112E3A031DBB29BC29012A301709
:10037A000130A5002508A007BC01BD01F0290A30FB
:10038A00F0000030F100831603133D08F3003C0827
:10039A00F2000A168A15F5220A128A1171088316C2
:1003AA000313BD007008BC00200884000A168A15D1
:1003BA000A200A128A11D03EA500FF300318003025
:1003CA00A6002508BC070318BD0A2608BD07013088
:1003DA00A5002508A007200884000A168A150A2005
:1003EA000A128A110A168A1583220A128A11031816
:1003FA00FF29002AC429072ABC01BD013016072A91
:10040A003015232A013083160313A007FF30200773
:10041A0084000A168A150A200A128A11C200A50047
:10042A00A6012608003A03191B2AD52F2508003AE7
:10043A000319E72F663A0319052AD52F00302F052D
:10044A00A50007303005A6002508260403192E2A20
:10045A002F2A902F301E322A332A372A0630BC0020
:10046A000030BD002E08840083130008BE00840AF1
:10047A000008BF00840A0008C000840A0008C100FE
:10048A000430A5002508AE074108F3004008F20031
:10049A003F08F1003E08F0000030F7000030F60097
:1004AA000030F5000030F4000A168A15A4260A1254
:1004BA008A110318612A622A7F2A831603134108C4
:1004CA00F3004008F2003F08F1003E08F0000A126B
:1004DA008A1105200A128A11730883160313C100B0
:1004EA007208C0007108BF007008BE000330AF0474
:1004FA000030B00483160313B501B6014108F300B6
:10050A004008F2003F08F1003E08F0000030F70012
:10051A000030F6000030F5000030F4000A168A15A3
:10052A005E240A128A1103189B2A9C2A8C2B031018
:10053A0083160313400D410D823EB500FF300318A8
:10054A000030B600FF30B5070318B60AFF30B60709
:10055A000330F0000030F1003608F3003508F200ED
:10056A000A168A15F5220A128A11710883160313CC
:10057A00B6007008B5000A30F7000030F8003608F7
:10058A00FA003508F9000A168A15BF250A128A11D7
:10059A00780883160313B6007708B500B61FD62A63
:1005AA00D72ADD2AFF30B5070318B60AFF30B60787
:1005BA003503FF3A0A128A1540210A128A11831258
:1005CA000313410883160313BA0083120313400866
:1005DA0083160313B900831203133F088316031308
:1005EA00B800831203133E0883160313B7004108A9
:1005FA0083120313A70083160313400883120313FD
:10060A00A600831603133F0883120313A50083165B
:10061A0003133E0883120313A400831603133A0834
:10062A0083120313AB0083160313390883120313CF
:10063A00AA0083160313380883120313A90083162A
:10064A000313370883120313A8000A128A159F247A
:10065A000A128A1183120313270883160313BA0096
:10066A0083120313260883160313B9008312031394
:10067A00250883160313B80083120313240883166C
:10068A000313B7003A08F3003908F2003808F100FA
:10069A003708F0003F30F7008030F6000030F500F0
:1006AA000030F4000A168A15A4260A128A110318C1
:1006BA005F2B602B692BFF3083160313B5070318D2
:1006CA00B60AFF30B6078C2B831603133A08F300D9
:1006DA003908F2003808F1003708F0004130F70015
:1006EA002030F6000030F5000030F4000A168A15B2
:1006FA00A4260A128A11031C832B842B8C2B01300B
:10070A0083160313B5070318B60A0030B607831613
:10071A0003133D08803AFF0080307F02031D972BA8
:10072A000D303C0203189A2B9B2BE22B83160313E2
:10073A003C080A168A116D230A128A1183120313BE
:10074A004108D5004008D4003F08D3003E08D20033
:10075A0083160313410883120313D9008316031364
:10076A00400883120313D800831603133F08831229
:10077A000313D700831603133E0883120313D6000C
:10078A000A168A1178250A128A1183120313550848
:10079A0083160313C1008312031354088316031329
:1007AA00C00083120313530883160313BF00831276
:1007BA000313520883160313BE0083160313360865
:1007CA00803AFF0080307F02031DED2B0A3035028C
:1007DA000318F02BF12B422C831603134108F30064
:1007EA004008F2003F08F1003E08F0000030F70030
:1007FA000030F6000030F5000030F4000A168A15C1
:10080A005E240A128A1103180B2C0C2CB42C8316A2
:10081A000313410883120313D400831603134008F9
:10082A0083120313D300831603133F08831203139F
:10083A00D200831603133E0883120313D1000A164B
:10084A008A1528260A128A1183120313540853049C
:10085A0052045104031D322C332CB42C8316031377
:10086A003608803AFF0080307F02031D3E2C02309A
:10087A003502031C412C422CB42C831603133A086C
:10088A00F3003908F2003808F1003708F000403068
:10089A00F7008930F6007030F5005F30F4000A1670
:1008AA008A15A4260A128A1103185C2C5D2C662C60
:1008BA00F73083160313B5070318B60AFF30B607D5
:1008CA006E2CF83083160313B5070318B60AFF30E7
:1008DA00B60735080A128A1540210A128A118312AC
:1008EA000313410883160313BA0083120313400843
:1008FA0083160313B900831203133F0883160313E5
:10090A00B800831203133E0883160313B700410885
:10091A00F3004008F2003F08F1003E08F0003A08F0
:10092A00F7003908F6003808F5003708F4000A1607
:10093A008A11D2200A128A11730883160313B4008B
:10094A007208B3007108B2007008B1000030C1002B
:10095A000030C0000030BF000030BE00382D8316C2
:10096A000313410883120313D400831603134008A8
:10097A0083120313D300831603133F08831203134E
:10098A00D200831603133E0883120313D1000A16FA
:10099A008A1528260A128A11831203135408831609
:1009AA000313B40083120313530883160313B3000B
:1009BA0083120313520883160313B200831203131C
:1009CA00510883160313B1003408F3003308F20008
:1009DA003208F1003108F00000300A168A1546275D
:1009EA000A128A11730883120313E9007208E800D5
:1009FA007108E7007008E6008316031341088312A2
:100A0A000313ED0083160313400883120313EC004B
:100A1A00831603133F0883120313EB008316031391
:100A2A003E0883120313EA000A168A15D1220A1213
:100A3A008A1183120313690883160313C1008312F0
:100A4A000313680883160313C0008312031367088D
:100A5A0083160313BF008312031366088316031356
:100A6A00BE00B501B601C201C20A4208A5000130A2
:100A7A000310A50DFF3E031D3D2D0310250D693EF4
:100A8A0084000A168A150A200A128A11A6000A1672
:100A9A008A150A200A128A11A7000A168A150A203C
:100AAA000A128A11A8000A168A150A200A128A113D
:100ABA00A90029083402031D6C2D28083302031DDE
:100ACA006C2D27083202031D6C2D260831020318EB
:100ADA006F2D702D712D7B2D0130A5002508C207C1
:100AEA000A304206031D7A2D7B2D3A2D03302F053D
:100AFA00A50000303005A600250826040319862D16
:100B0A00872DF92D2D30A5003B0884002508831375
:100B1A0080000130A5002508BB07F92D4208A50071
:100B2A0001300310A50DFF3E031D962D0310250D60
:100B3A00693E84000A168A150A200A128A11F000F0
:100B4A000A168A150A200A128A11F1000A168A154B
:100B5A000A200A128A11F2000A168A150A200A12B3
:100B6A008A11F3003408F7003308F6003208F5005A
:100B7A003108F4000A168A1559250A128A117308CF
:100B8A0083160313BA007208B9007108B800700816
:100B9A00B7000030F3000030F2000030F1000A30F4
:100BAA00F0003A08F7003908F6003808F500370867
:100BBA00F4000A168A15AC240A128A1173088316DD
:100BCA000313BA007208B9007108B8007008B700B8
:100BDA003708303EA5003B088400250883138000AF
:100BEA000130A5002508BB070130C202420A031DD5
:100BFA00FF2D002E932D142E303083160313A500DB
:100C0A003B0884002508831380000130A5002508CD
:100C1A00BB07FF30B5070318B60AFF30B607360818
:100C2A00803AFF0080307F02031D1D2E01303502FD
:100C3A000318202E212E012E831603133D08803A15
:100C4A00FF0080307F02031D2C2E09303C02031C5A
:100C5A002F2E302E372E083083160313A5002508B1
:100C6A00C2003D2E831603133C08A5002508C200C6
:100C7A004208A500A6012508BC022608031CBD03DC
:100C8A00BD02420803194A2E4B2E562E2E30A500BD
:100C9A003B0884002508831380000130A50025083D
:100CAA00BB0742080A128A1540210A128A118312C6
:100CBA000313410883160313AD008312031340087C
:100CCA0083160313AC00831203133F08831603131E
:100CDA00AB00831203133E0883160313AA002D08E0
:100CEA0083120313AB00831603132C088312031316
:100CFA00AA00831603132B0883120313A900831671
:100D0A0003132A0883120313A80083160313410846
:100D1A0083120313A70083160313400883120313D5
:100D2A00A600831603133F0883120313A500831634
:100D3A0003133E0883120313A4000A128A159F2480
:100D4A000A128A11831203132708D4002608D30033
:100D5A002508D2002408D1000A168A1528260A1264
:100D6A008A1183120313540883160313B4008312DF
:100D7A000313530883160313B30083120313520891
:100D8A0083160313B2008312031351088316031345
:100D9A00B100702F4208A50001300310A50DFF3ED7
:100DAA00031DD22E0310250D693E84000A168A15EA
:100DBA000A200A128A11F0000A168A150A200A1253
:100DCA008A11F1000A168A150A200A128A11F200FB
:100DDA000A168A150A200A128A11F3003408F70043
:100DEA003308F6003208F5003108F4000A168A15AD
:100DFA0059250A128A11730883160313BA00720856
:100E0A00B9007108B8007008B7000030F30000306C
:100E1A00F2000030F1000A30F0003A08F700390811
:100E2A00F6003808F5003708F4000A168A15AC24CB
:100E3A000A128A11730883160313BA007208B900DA
:100E4A007108B8007008B7003708303EA5003B08A3
:100E5A0084002508831380000130A5002508BB07FC
:100E6A004208A50001300310A50DFF3E031D382FCF
:100E7A000310250D693E84000A168A150A200A12F3
:100E8A008A11F0000A168A150A200A128A11F1003C
:100E9A000A168A150A200A128A11F2000A168A15F7
:100EAA000A200A128A11F3003408F7003308F60000
:100EBA003208F5003108F4000A168A15AC240A1221
:100ECA008A11730883160313B4007208B3007108F9
:100EDA00B2007008B1000130C202420A031D762F27
:100EEA00772FCF2E892F3030A5003B0884002508A4
:100EFA00831380000130A5002508BB07FF30BC071B
:100F0A000318BD0AFF30BD073C083D04031D8E2FA0
:100F1A008F2F782FD52F3C083D04031D952F962F30
:100F2A00A42F3408330432043104031D9D2F9E2F4D
:100F3A00A42F0130BC070318BD0A0030BD073D08C5
:100F4A00803A803C031DAB2F3C0842020318AE2FA7
:100F5A00AF2FB02FBF2F831603133D08803AA50089
:100F6A0080302502031DBB2F42083C020318BE2F06
:100F7A00BF2FBF2F0330831603132F05A5000030A0
:100F8A003005A600250826040319CC2FCD2FD52F0E
:100F9A002D30A5003B088400250883138000A92969
:100FAA000130A007FF30200784000A168A150A209C
:100FBA000A128A11A5002508C2004208031DE62F5D
:100FCA00E72F9C293B0884008313800108008312C1
:100FDA000313EE01EF0183160313D501D601D701DE
:100FEA00D801D901DA01DB01DC01DD01DE0183016F
:060FFA000A128A11102802
:10100E0001300A168A15B1220A128A150800F80054
:10101E00F401F5017008F200F3017208F60073088E
:10102E00F700781C1B281C2822287608F4070318C2
:10103E00F50A7708F50701300310F60DF70DFF3EA0
:10104E00031D23280310F80C7808031D2F283028C1
:10105E0018287508F1007408F0000800F3008312D8
:10106E0003131F149F141F083F3940389F00831627
:10107E0003131F129F12F728831603170814C33089
:10108E00831203139F058316031305142F2983164A
:10109E0003178814831203131F08C33904389F00E3
:1010AE008316031385142F2983160317081583122D
:1010BE0003131F08C33908389F0083160313051541
:1010CE002F29831603178815831203131F08C3399C
:1010DE000C389F008316031385152F2983160317CB
:1010EE000816831203131F08C33910389F00831686
:1010FE00031385162F2983160317881683120313DD
:10110E001F08C33914389F008316031309142F299F
:10111E00831603170817831203131F08C3391838D1
:10112E009F008316031389142F298316031788171C
:10113E00831203131F08C3391C389F008316031331
:10114E0009152F29831603170914831203131F0879
:10115E00C33920389F008316031306152F298316D3
:10116E0003178914831203131F08C33924389F00F1
:10117E008316031386152F29831603170915831259
:10118E0003131F08C33928389F00831603138614D0
:10119E002F29831603178915831203131F08C339CA
:1011AE002C389F008316031306162F298316031758
:1011BE000916831203131F08C33930389F00831694
:1011CE00031306142F29831603178916831203138C
:1011DE001F08C33934389F008316031386162F2930
:1011EE007308F100F2017208003A0319FF282F2943
:1011FE007108003A03194328013A03194E28033A9D
:10120E0003195B28013A03196828073A0319752850
:10121E00013A03198228033A03198F28013A031958
:10122E009C280F3A0319A928013A0319B628033A44
:10123E000319C328013A0319D028073A0319DD28E8
:10124E00013A0319EA282F299F133F299F173F2997
:10125E007008F100F2017208003A031937293F298C
:10126E007108003A03192B29013A03192D293F2938
:10127E00080083120313D000D01F46294729F42AF1
:10128E00D009D00A5008803A123E031C4F2950292B
:10129E00382A0A30F7000030F8005008F200F30147
:1012AE00F21BF3036430F0000030F1000A168A15C9
:1012BE0000250A128A157108FA007008F9000A163C
:1012CE008A15BF250A128A15770883120313C200E6
:1012DE0001300310C20DFF3E031D70290310420D95
:1012EE00593E84000A168A150A200A128A15C3006E
:1012FE000A168A150A200A128A15C4000A168A15B9
:10130E000A200A128A15C5000A168A150A200A1220
:10131E008A15C6004608A7004508A6004408A50081
:10132E004308A4006430F7000030F8005008F900BC
:10133E00FA01F91BFA030A168A15BF250A128A1535
:10134E00770883120313C70001300310C70DFF3E49
:10135E00031DAC290310470D7D3E84000A168A1525
:10136E000A200A128A15C8000A168A150A200A12BD
:10137E008A15C9000A168A150A200A128A15CA0089
:10138E000A168A150A200A128A15CB004B08AB00E2
:10139E004A08AA004908A9004808A8000A128A1596
:1013AE009F240A128A15831203132708CF002608DA
:1013BE00CE002508CD002408CC000A30F000003005
:1013CE00F1005008F200F301F21BF3030A168A151E
:1013DE0000250A128A15700883120313C200013009
:1013EE000310C20DFF3E031DF7290310420D353EBB
:1013FE0084000A168A150A200A128A15C3000A16D4
:10140E008A150A200A128A15C4000A168A150A209D
:10141E000A128A15C5000A168A150A200A128A159A
:10142E00C6004608A7004508A6004408A5004308C4
:10143E00A4004F08AB004E08AA004D08A9004C08A6
:10144E00A8000A128A159F240A128A158312031302
:10145E002708C1002608C0002508BF002408BE00CA
:10146E009E2C5008803A753E031C3E2A3F2AC72AFE
:10147E000A30F0000030F1005008F200F301F21BC8
:10148E00F3030A168A1500250A128A1570088312AC
:10149E000313C20001300310C20DFF3E031D522A7A
:1014AE000310420D353E84000A168A150A200A12D0
:1014BE008A15C3000A168A150A200A128A15C40054
:1014CE000A168A150A200A128A15C5000A168A15E6
:1014DE000A200A128A15C6004608A7004508A6006B
:1014EE004408A5004308A4000A30F7000030F800B5
:1014FE005008F900FA01F91BFA030A168A15BF25DE
:10150E000A128A15770883120313C70001300310DD
:10151E00C70DFF3E031D8E2A0310470D593E840052
:10152E000A168A150A200A128A15C8000A168A1582
:10153E000A200A128A15C9000A168A150A200A12EA
:10154E008A15CA000A168A150A200A128A15CB00B5
:10155E004B08AB004A08AA004908A9004808A80091
:10156E000A128A159F240A128A158312031327085A
:10157E00C1002608C0002508BF002408BE009E2C0E
:10158E005008C20001300310C20DFF3E031DCA2ACF
:10159E000310420D353E84000A168A150A200A12DF
:1015AE008A15C3000A168A150A200A128A15C40063
:1015BE000A168A150A200A128A15C5000A168A15F5
:1015CE000A200A128A15C6004608C1004508C00046
:1015DE004408BF004308BE009E2C5008803A123EBD
:1015EE00031CFA2AFB2AE32B0A30F7000030F8001E
:1015FE005008F200F301F21BF3036430F0000030E8
:10160E00F1000A168A1500250A128A157108FA00C9
:10161E007008F9000A168A15BF250A128A1577086E
:10162E0083120313C20001300310C20DFF3E031DCF
:10163E001B2B0310420D253E84000A168A150A2024
:10164E000A128A15C3000A168A150A200A128A156A
:10165E00C4000A168A150A200A128A15C5000A162F
:10166E008A150A200A128A15C6004608A7004508E0
:10167E00A6004408A5004308A4006430F70000301B
:10168E00F8005008F900FA01F91BFA030A168A1538
:10169E00BF250A128A15770883120313C70001307B
:1016AE000310C70DFF3E031D572B0310470D493E78
:1016BE0084000A168A150A200A128A15C8000A160C
:1016CE008A150A200A128A15C9000A168A150A20D6
:1016DE000A128A15CA000A168A150A200A128A15D3
:1016EE00CB004B08AB004A08AA004908A9004808DD
:1016FE00A8000A128A159F240A128A158312031350
:10170E002708CF002608CE002508CD002408CC00DF
:10171E000A30F0000030F1005008F200F301F21B25
:10172E00F3030A168A1500250A128A157008831209
:10173E000313C20001300310C20DFF3E031DA22B86
:10174E000310420D013E84000A168A150A200A1261
:10175E008A15C3000A168A150A200A128A15C400B1
:10176E000A168A150A200A128A15C5000A168A1543
:10177E000A200A128A15C6004608A7004508A600C8
:10178E004408A5004308A4004F08AB004E08AA0069
:10179E004D08A9004C08A8000A128A159F240A12A7
:1017AE008A15831203132708C1002608C0002508D6
:1017BE00BF002408BE009E2C5008803A753E031CC4
:1017CE00E92BEA2B722C0A30F0000030F1005008A1
:1017DE00F200F301F21BF3030A168A1500250A1212
:1017EE008A15700883120313C20001300310C20D54
:1017FE00FF3E031DFD2B0310420D013E84000A1611
:10180E008A150A200A128A15C3000A168A150A209A
:10181E000A128A15C4000A168A150A200A128A1597
:10182E00C5000A168A150A200A128A15C60046082D
:10183E00A7004508A6004408A5004308A4000A30E6
:10184E00F7000030F8005008F900FA01F91BFA030E
:10185E000A168A15BF250A128A15770883120313F2
:10186E00C70001300310C70DFF3E031D392C0310B6
:10187E00470D253E84000A168A150A200A128A157B
:10188E00C8000A168A150A200A128A15C9000A16F5
:10189E008A150A200A128A15CA000A168A150A2003
:1018AE000A128A15CB004B08AB004A08AA00490859
:1018BE00A9004808A8000A128A159F240A128A1540
:1018CE00831203132708C1002608C0002508BF0095
:1018DE002408BE009E2C5008C20001300310C20D19
:1018EE00FF3E031D752C0310420D013E84000A16A7
:1018FE008A150A200A128A15C3000A168A150A20AA
:10190E000A128A15C4000A168A150A200A128A15A6
:10191E00C5000A168A150A200A128A15C60046083C
:10192E00C1004508C0004408BF004308BE000800BF
:10193E008312031327088039AC002C08B100270846
:10194E00AC002C07AD002D08B700A61FAF2CB02C95
:10195E00B12C371437080319B52CB62CC52C370A01
:10196E00031DBA2CBB2CC32C0030A7000030A600E0
:10197E000030A5000030A400A617CD2C0030A70023
:10198E000030A6000030A5000030A4002B088039DE
:10199E00AC002C08B1062B08AC002C07AD002D08AE
:1019AE00B600AA1FDB2CDC2CDD2C361436080319EE
:1019BE00E12CE22CF12C360A031DE62CE72CEF2C41
:1019CE000030AB000030AA000030A9000030A800A3
:1019DE00AA17F92C0030AB000030AA000030A90085
:1019EE000030A80036080319FD2CFE2C032D3708F5
:1019FE00031D022D032D0C2D0030A7000030A60074
:101A0E000030A5000030A400FF2F2408AC002C08E5
:101A1E00F0002A080A128A150E200A128A15710879
:101A2E0083120313BD007008BC003C08AC00AD016E
:101A3E00AE01AF012F08B5002E08B4002D08B3007B
:101A4E002C08B2003D08AC00AD01AE01AF012F086D
:101A5E00BB002E08BA002D08B9002C08B8002508C6
:101A6E00AC002C08F00029080A128A150E200A1262
:101A7E008A15710883120313BD007008BC003C0860
:101A8E00AC00AD01AE01AF012C08B2072D08031159
:101A9E000318013E0319542DB3072E080311031822
:101AAE00013E03195B2DB4072F0803110318013EE5
:101ABE000319622DB5073D08AC00AD01AE01AF01B3
:101ACE002C08B8072D0803110318013E0319702DB9
:101ADE00B9072E0803110318013E0319772DBA0713
:101AEE002F0803110318013E03197E2DBB0726088C
:101AFE00AC002C08F00028080A128A150E200A12D3
:101B0E008A15710883120313BD007008BC003C08CF
:101B1E00AC00AD01AE01AF012C08B2072D080311C8
:101B2E000318013E03199C2DB3072E080311031849
:101B3E00013E0319A32DB4072F0803110318013E0C
:101B4E000319AA2DB5073D08AC00AD01AE01AF01DA
:101B5E002C08B8072D0803110318013E0319B82DE0
:101B6E00B9072E0803110318013E0319BF2DBA073A
:101B7E002F0803110318013E0319C62DBB070830A9
:101B8E00AC000310B20DB30DB40DB50DAC0BC82DDA
:101B9E002508AC002C08F00028080A128A150E2021
:101BAE000A128A15710883120313BD007008BC0057
:101BBE003C08AC003D08AD00AE01AF012C08B207E9
:101BCE002D0803110318013E0319EE2DB3072E083D
:101BDE0003110318013E0319F52DB4072F08031145
:101BEE000318013E0319FC2DB5072408AC002C0880
:101BFE00F00029080A128A150E200A128A15710899
:101C0E0083120313BD007008BC003C08AC003D08F5
:101C1E00AD00AE01AF012C08B2072D080311031859
:101C2E00013E03191B2EB3072E0803110318013EA4
:101C3E000319222EB4072F0803110318013E0319AE
:101C4E00292EB5070830AC000310B20DB30DB40D3C
:101C5E00B50DAC0B2B2E2408AC002C08F000280878
:101C6E000A128A150E200A128A157108831203139E
:101C7E00BD007008BC003C08AC003D08AD00AE01D4
:101C8E00AF012C08B2072D0803110318013E0319EA
:101C9E00512EB3072E0803110318013E0319582EB7
:101CAE00B4072F0803110318013E03195F2EB50761
:101CBE002508AC002C08F0002A080A128A150E20FE
:101CCE000A128A15710883120313BD007008BC0036
:101CDE003C08AC003D08AD00AE01AF012C08B807C2
:101CEE002D0803110318013E03197E2EB9072E0885
:101CFE0003110318013E0319852EBA072F0803118D
:101D0E000318013E03198C2EBB072608AC002C08C5
:101D1E00F00029080A128A150E200A128A15710877
:101D2E0083120313BD007008BC003C08AC003D08D4
:101D3E00AD00AE01AF012C08B8072D080311031832
:101D4E00013E0319AB2EB9072E0803110318013EED
:101D5E000319B22EBA072F0803110318013E0319F7
:101D6E00B92EBB072608AC002C08F0002A080A1270
:101D7E008A150E200A128A15710883120313BD00EC
:101D8E007008BC003C08AC003D08AD00AE01AF01D0
:101D9E0008300310AC0DAD0DAE0DAF0DFF3E031DA3
:101DAE00D02E2C08B8072D0803110318013E031975
:101DBE00E12EB9072E0803110318013E0319E82E70
:101DCE00BA072F0803110318013E0319EF2EBB07A4
:101DDE003208AC003308AD003408AE003508AF0051
:101DEE0018300310AF0CAE0CAD0CAC0CFF3E031D47
:101DFE00F82E2C08B8072D0803110318013E0319FD
:101E0E00092FB9072E0803110318013E0319102FCD
:101E1E00BA072F0803110318013E0319172FBB072A
:101E2E000830AC000310B20DB30DB40DB50DAC0BF4
:101E3E00192F37083607AC00AD01AD0D2C08823EC8
:101E4E00BC002D080318013EFF3EBD004B2F013094
:101E5E00AC000310B80DB90DBA0DBB0DAC0B302F85
:101E6E00B51F3A2F3B2F3C2F38140130AC00031016
:101E7E00B20DB30DB40DB50DAC0B3E2FFF30BC073C
:101E8E000318BD0AFF30BD07BA1F4E2F4F2F2E2F3E
:101E9E00B601B51F532F542F702FFF303205AC00F3
:101EAE00FF303305AD00FF303405AE007F30350511
:101EBE00AF002F082E042D042C040319672F682F52
:101ECE006B2FB601B60A702F381C6E2F6F2F702F26
:101EDE00682F36080319742F752FA62F0130B807F7
:101EEE00003003180130B907003003180130BA076B
:101EFE00003003180130BB073B1C862F872FA62FFF
:101F0E003808AC003908AD003A08AE003B08AF0007
:101F1E000130B0002F0DAF0CAE0CAD0CAC0CB00BF5
:101F2E00912F2F08BB002E08BA002D08B9002C08DF
:101F3E00B8000130BC070318BD0A0030BD073D08CC
:101F4E00803AFF0080307F02031DAF2FFF303C022E
:101F5E00031CB22FB32FBE2F7F3083120313BB008F
:101F6E008030BA000030B9000030B800F32F831271
:101F7E0003133D08803AFF0080307F02031DC92FF6
:101F8E0001303C020318CC2FCD2FD92F00308312F5
:101F9E000313BB000030BA000030B9000030B800A7
:101FAE00B101F32F831203133C08AC002C08B700C9
:101FBE00FF30B805FF30B9057F30BA050030BB05DC
:101FCE00371CEA2FEB2FEC2FBA173708AC00031093
:101FDE002C0CAD002D08BB003108AC002C08BB0446
:101FEE003B08A7003A08A6003908A5003808A40047
:101FFE000800F20083120313871472080A168A155A
:10200E0054230A168A118312031307140D30F1009C
:10201E00F10B0F2883120313071008007008F80045
:10202E007108F9007208FA000310790D7A0DFB00A1
:10203E007B0883120313A5002508031D27282828D3
:10204E0031280030F3000030F2000030F100003093
:10205E00F000D1287408F8007508F9007608FA0027
:10206E000310790D7A0DFB007B08A4002408031DD4
:10207E004128422843282828F117FF30F005FF3069
:10208E00F1050030F205F517FF30F405FF30F505C8
:10209E000030F6050030A3000030A2000030A10091
:1020AE000030A0007F30A50298302407F800780891
:1020BE00A5021830F8007808A4000130F8000310CB
:1020CE00A00DA10DA20DA30DF80B662876087202C5
:1020DE00031D772875087102031D77287408700296
:1020EE00031C7A287B2886287408F0027508031CC6
:1020FE00750FF1027608031C760AF20220140130E5
:10210E000310F00DF10DF20DFF3E031D8728013077
:10211E00A402031D932894286428A51F97289828A5
:10212E00B2282508803A973E03189E289F28A0289B
:10213E00282801300310A30CA20CA10CA00CFF3E0A
:10214E00031DA1280130F8007808A507031DB0284B
:10215E00B128A028C92818302502031CB728B82892
:10216E00C42828280130F8000310A00DA10DA20DDF
:10217E00A30DF80BBB280130A5022508031DC828A6
:10218E00C928B9282308F3002208F2002108F1001B
:10219E002008F00008000310720D730DF800780887
:1021AE0083120313A5002508031DDE28DF28E82867
:1021BE000030F3000030F2000030F1000030F0008B
:1021CE008F290310760D770DF8007808A4002408E7
:1021DE00031DF228F328F428DF28F217FF30F0054C
:1021EE00FF30F105FF30F2050030F305F617FF3032
:1021FE00F405FF30F505FF30F6050030F705003029
:10220E00A3000030A2000030A1000030A0007F30FB
:10221E00A502A0302407F8007808A5022030F800A7
:10222E007808A4000130F8000310A00DA10DA20D36
:10223E00A30DF80B1B2977087302031D30297608AE
:10224E007202031D302975087102031D30297408AE
:10225E007002031C3329342943297408F0027508CF
:10226E00031C750FF1027608031C760FF202770835
:10227E00031C770FF30220140130F8000310F00D49
:10228E00F10DF20DF30DF80B45290130A402031DDB
:10229E00512952291929A51F552956297029250872
:1022AE00803A9F3E03185C295D295E29DF280130A4
:1022BE000310A30CA20CA10CA00CFF3E031D5F2962
:1022CE000130F8007808A507031D6E296F295E29D5
:1022DE00872920302502031C752976298229DF28BB
:1022EE000130F8000310A00DA10DA20DA30DF80BE7
:1022FE0079290130A5022508031D8629872977290A
:10230E002308F3002208F2002108F1002008F00053
:10231E0008008312031327088039A8002808B1008B
:10232E002708A8002807A9002908B800A61FA02979
:10233E00A129A229381438080319A629A729B729D3
:10234E00380A031DAB29AC29B4290030A700003090
:10235E00A6000030A5000030A400A617A701BF29D3
:10236E000030A7000030A6000030A5000030A40009
:10237E0023088039A8002808B1062308A8002807DA
:10238E00A9002908B900A21FCD29CE29CF293914B9
:10239E0039080319D329D429E429390A031DD82968
:1023AE00D929E1290030A3000030A2000030A1009D
:1023BE000030A000A217A301EC290030A3000030CA
:1023CE00A2000030A1000030A00023082204210446
:1023DE002004031DF329F4290D2A0030A700003034
:1023EE00A6000030A5000030A4008030A6047F3087
:1023FE00A7043108A8002808A7042708A300260868
:10240E00A2002508A1002408A0006C2B3808031D8B
:10241E00112A122A1B2A0030A3000030A20000301D
:10242E00A1000030A0006C2B3808A800A9012908D3
:10243E00AB0039082802AA00031CAB032A087F3E12
:10244E00B2002B080318013E003EB3002708B0006F
:10245E002608AF002508AE002408AD000030A70006
:10246E000030A6000030A5000030A4000030B700F8
:10247E000030B6000030B5000030B400B901912A2A
:10248E00390803194B2A4C2A6C2A0130A800031074
:10249E00AD0DAE0DAF0DB00DA80B4E2A0130A8003C
:1024AE000310A40DA50DA60DA70DA80B572AB71F37
:1024BE00612A622A632A24140130A8000310B40D85
:1024CE00B50DB60DB70DA80B652A23083002031DF6
:1024DE007A2A22082F02031D7A2A21082E02031DB2
:1024EE007A2A20082D02031C7D2A7E2A8D2A371770
:1024FE002008AD022108031C210FAE022208031C86
:10250E00220FAF022308031C230FB0020130A800D4
:10251E002808B9071A303902031C962A972A472A27
:10252E0030082F042E042D0403199E2A9F2ABE2A3A
:10253E003414BE2A0130A8000310A40DA50DA60D5B
:10254E00A70DA80BA32AB71FAD2AAE2AAF2A2414B3
:10255E000130A8000310B40DB50DB60DB70DA80BC4
:10256E00B12AFF30B2070318B30AFF30B307A61F14
:10257E00C12AC22AA12AB901B71FC62AC72AE32A2D
:10258E00FF303405A800FF303505A900FF303605B1
:10259E00AA007F303705AB002B082A042904280433
:1025AE000319DA2ADB2ADE2AB901B90AE32A241C26
:1025BE00E12AE22AE32ADB2A39080319E72AE82A64
:1025CE00192B0130A407003003180130A507003085
:1025DE0003180130A607003003180130A707271C87
:1025EE00F92AFA2A192B2408A8002508A90026087A
:1025FE00AA002708AB000130AC002B0DAB0CAA0CC7
:10260E00A90CA80CAC0B042B2B08A7002A08A600BB
:10261E002908A5002808A4000130B2070318B30A40
:10262E000030B3073308803AFF0080307F02031D6D
:10263E00222BFF303202031C252B262B342BFF308E
:10264E0083120313B2000030B3000030A700003035
:10265E00A6000030A5000030A40083120313330837
:10266E00803AFF0080307F02031D3F2B0130320283
:10267E000318422B432B502B83120313B201B301C9
:10268E000030A7000030A6000030A5000030A400E6
:10269E00B101831203133208A8002808B800381CB1
:1026AE00592B5A2B5C2BA617602B7F30A8002808BD
:1026BE00A6053808A8000310280CA9002908A700B1
:1026CE003108A8002808A704042A0800831203135F
:1026DE00D1006E305102031C752B762B832C3F30AC
:1026EE00A7000030A6000030A5000030A400643022
:1026FE00F6000030F7005108C200C3014208F8008E
:10270E004308F9000A168A15D4230A168A11760888
:10271E0083120313C40001300310C40DFF3E031DCA
:10272E00932B0310440D7D3E84000A168A150A2051
:10273E000A168A11C5000A168A150A200A168A1167
:10274E00C6000A168A150A200A168A11C7000A162A
:10275E008A150A200A168A11C8004808AB004708D5
:10276E00AA004608A9004508A8000A128A159F2447
:10277E000A168A11831203132708D0002608CF00E9
:10278E002508CE002408CD000A30F6000030F700F0
:10279E005108C200C3014208F2004308F30064303E
:1027AE00F0000030F1000A168A151A230A168A1153
:1027BE007108F9007008F8000A168A15D4230A1653
:1027CE008A11760883120313C40001300310C40D5E
:1027DE00FF3E031DED2B0310440D593E84000A16D7
:1027EE008A150A200A168A11C5000A168A150A20A9
:1027FE000A168A11C6000A168A150A200A168A11A6
:10280E00C7000A168A150A200A168A11C800480837
:10281E00A7004708A6004608A5004508A4005008D2
:10282E00AB004F08AA004E08A9004D08A8000A12D6
:10283E008A159F240A168A11831203132708CC00C7
:10284E002608CB002508CA002408C9000A30F0006B
:10285E000030F1005108C200C3014208F2004308E3
:10286E00F3000A168A151A230A168A1170088312A3
:10287E000313C40001300310C40DFF3E031D422C90
:10288E000310440D353E84000A168A150A200A16D6
:10289E008A11C5000A168A150A200A168A11C60060
:1028AE000A168A150A200A168A11C7000A168A15F0
:1028BE000A200A168A11C8004808A7004708A60071
:1028CE004608A5004508A4004C08AB004B08AA001A
:1028DE004A08A9004908A8000A128A159F240A1658
:1028EE008A11831203132708C1002608C000250889
:1028FE00BF002408BE00772D0B305102031C882C1C
:10290E00892C342D3F30A7000030A6000030A500E2
:10291E000030A4000A30F6000030F7005108C20063
:10292E00C3014208F8004308F9000A168A15D42399
:10293E000A168A11760883120313C400013003109D
:10294E00C40DFF3E031DA62C0310440D593E8400FA
:10295E000A168A150A200A168A11C5000A168A1541
:10296E000A200A168A11C6000A168A150A200A16A5
:10297E008A11C7000A168A150A200A168A11C8007B
:10298E004808AB004708AA004608A9004508A80059
:10299E000A128A159F240A168A1183120313270816
:1029AE00D0002608CF002508CE002408CD000A301E
:1029BE00F0000030F1005108C200C3014208F200DD
:1029CE004308F3000A168A151A230A168A1170088C
:1029DE0083120313C40001300310C40DFF3E031D08
:1029EE00F32C0310440D353E84000A168A150A2076
:1029FE000A168A11C5000A168A150A200A168A11A5
:102A0E00C6000A168A150A200A168A11C7000A1667
:102A1E008A150A200A168A11C8004808A700470816
:102A2E00A6004608A5004508A4005008AB004F08B4
:102A3E00AA004E08A9004D08A8000A128A159F2464
:102A4E000A168A11831203132708C1002608C00034
:102A5E002508BF002408BE00772D3F30A7000030A8
:102A6E00A6000030A5000030A4005108C2000130BD
:102A7E000310C20DFF3E031D3F2D0310420D353EC8
:102A8E0084000A168A150A200A168A11C3000A162D
:102A9E008A150A200A168A11C4000A168A150A20F7
:102AAE000A168A11C5000A168A150A200A168A11F4
:102ABE00C6004608AB004508AA004408A900430812
:102ACE00A8000A128A159F240A168A11831203136C
:102ADE002708C1002608C0002508BF002408BE0034
:102AEE0008008312031355088039DA005A08E200F1
:102AFE005508DA005A07DB005B08E400D41F882D66
:102B0E00892D8A2D6414640803198E2D8F2D9F2D07
:102B1E00640A031D932D942D9C2D0030D50000309A
:102B2E00D4000030D3000030D200D417D501A72D29
:102B3E000030D5000030D4000030D3000030D20079
:102B4E0059088039DA005A08E3006308620603194F
:102B5E00B12DB22DB32D62175908DA005A07DB00DA
:102B6E005B08E300D81FBC2DBD2DBE2D631463087A
:102B7E000319C22DC32DD32D630A031DC72DC82DD6
:102B8E00D02D0030D9000030D8000030D7000030F2
:102B9E00D600D817D901DB2D0030D9000030D8006F
:102BAE000030D7000030D600640863020318E02D11
:102BBE00E12D252E621FE42DE52DE92D8030DA0062
:102BCE005A08E2066408DA005A08E5006308DA00DB
:102BDE005A08E4006508DA005A08E3005208DA00E1
:102BEE005A08E5005608DA005A08D2006508DA00DD
:102BFE005A08D6005308DA005A08E5005708DA00DA
:102C0E005A08D3006508DA005A08D7005408DA00CB
:102C1E005A08E5005808DA005A08D4006508DA00A8
:102C2E005A08D8005508DA005A08E5005908DA00A3
:102C3E005A08D5006508DA005A08D900E50163087C
:102C4E00DA00DB015B08DD0064085A02DC00031CBD
:102C5E00DD035D08803AFF0080307F02031D392EB0
:102C6E001A305C02031C3C2E3D2E7A2E8312031367
:102C7E005508540453045204031D462E482E0130A9
:102C8E00492E0030DA005A08E5000030D500003039
:102C9E00D4000030D3000030D2006308DA005A08A6
:102CAE00E400822E651C5C2E5D2E662E6508DA0011
:102CBE0003105A0C0138DB005B08E500682E031088
:102CCE00E50C521C6B2E6C2E6D2EE5170130DA00C2
:102CDE00550DD50CD40CD30CD20CDA0B6F2E013053
:102CEE00DA005A08E4078312031363086402031C14
:102CFE00812E822E592E621B852E862ED12E640891
:102D0E00031D8A2E8B2E942E0030D5000030D40059
:102D1E000030D3000030D200FF2F5608D2075708DC
:102D2E0003110318013E03199D2ED30758080311F2
:102D3E000318013E0319A42ED407590803110318D2
:102D4E00013E0319AB2ED507551CAE2EAF2E852F87
:102D5E00651CB22EB32EBC2E6508DA0003105A0C79
:102D6E000138DB005B08E500BE2E0310E50C521C9B
:102D7E00C12EC22EC32EE5170130DA00550DD50C2B
:102D8E00D40CD30CD20CDA0BC52E0130DA005A0853
:102D9E00E407852F5508803AFF005908803A7F02D4
:102DAE00031DE32E58085402031DE32E5708530249
:102DBE00031DE32E560852020318E62EE72E3F2F70
:102DCE00FF30DA00FF30DB00FF30DC00FF30DD00CB
:102DDE005608DE005708DF005808E0005908E100E9
:102DEE005208DE025308031C530FFE2EFF2EDF0285
:102DFE005408031C540F042F052FE0025508031C22
:102E0E00550F0A2F0B2FE1025E08DA075F08031831
:102E1E005F0F122F132FDB0760080318600F182F98
:102E2E00192FDC0761080318610ADD075D08D5005C
:102E3E005C08D4005B08D3005A08D2008030DA0058
:102E4E005A08E206E509E50A6508031D2F2F302F03
:102E5E004D2F0130D207003003180130D307003058
:102E6E0003180130D407003003180130D5074D2F59
:102E7E005608D2025708031C570FD3025808031CDA
:102E8E00580FD4025908031C590FD5025508540483
:102E9E0053045204031D542F552F812F6508031D13
:102EAE00592F5A2F812F0030D5000030D40000301A
:102EBE00D3000030D200FF2F0130DA000310D20D04
:102ECE00D30DD40DD50DDA0B652FE51F6F2F702F97
:102EDE00712F5214651C742F752F782F0314E50D66
:102EEE007A2F0310E50D640803197E2F7F2F812F93
:102EFE000130E402D41F842F852F632FE301E51FD9
:102F0E00892F8A2F982F65087F3903198F2F902FBD
:102F1E00932FE301E30A982F521C962F972F982F89
:102F2E00902F630803199C2F9D2FD12F0130D207AC
:102F3E00003003180130D307003003180130D407D6
:102F4E00003003180130D507551CAE2FAF2FD12FEF
:102F5E005208DA005308DB005408DC005508DD0087
:102F6E000130DE005D0DDD0CDC0CDB0CDA0CDE0B53
:102F7E00B92F5D08D5005C08D4005B08D3005A0851
:102F8E00D200640A0319CC2FCD2FD12F0130DA00D5
:102F9E005A08E407640A0319D52FD62FDB2F6408CD
:102FAE00031DDA2FDB2FE92F0030D5000030D400BF
:102FBE000030D3000030D2006408031DE72FE82F45
:102FCE00E92FE201641CEC2FED2FEF2FD417F32F16
:102FDE007F30DA005A08D4056408DA0003105A0C60
:102FEE00DB005B08D500E21FFD2FFE2FFF2FD5174C
:102FFE000800FF1B0A2883137F1883170008840A12
:10300E000319FF0A080018308A000408840A820790
:10301E0000340034003480343F3400340034203423
:10302E00413400340034C8344234003400347A342D
:10303E004434003440341C34463400345034C334E9
:10304E00473400342434743449348034963418347C
:10305E004B342034BC34BE344C3428346B346E3490
:10306E004E34F934023415345034EC347834AD34F3
:10307E006034CA34F234493471340034003480344C
:10308E003F34CD34CC34CC343D340A34D7342334AD
:10309E003C346F34123483343A341734B734D13469
:1030AE003834AC34C53427343734BD3437348634F1
:1030BE0035349534BF34D63433347734CC342B3462
:1030CE0032345F34703489343034FF34E634DB34D8
:1030DE002E340834E5343C341E3460344234A23489
:1030EE000D3401340034003400340A34003400341A
:1030FE0000346434003400340034E83403340034D3
:10310E0000341034273400340034A03486340134B3
:10311E000034403442340F340034803496349834C2
:10312E0000340034E134F53405340034CA349A34B2
:10313E003B3425342E34323466340034503431343A
:10314E003A340034503432343A3400345034333458
:04315E003A340034CB
:10350600F100F0013A30710203188A2A8B2A932AB5
:1035160030307102031C902A912A932AF001F00A96
:10352600700C0800F5007503031D9A2A9B2AA32A2E
:1035360074087F3E0A168A15B1220A168A15B02A21
:1035460002307506031DA82AA92AB02A7408BF3EB0
:103556000A168A15B1220A168A150800F300831284
:103566000313871073080A168A1554230A168A1538
:103576008312031307140730F2007D30F100F10BBC
:10358600C22AF20BC22A831203130710C730F100B6
:10359600CC2AF10BCB2ACF2AD02A080080308312FE
:1035A6000313E9066D08D5006C08D4006B08D30038
:1035B6006A08D2006908D9006808D8006708D700E9
:1035C6006608D6000A168A1178250A168A15831205
:1035D60003135508E9005408E8005308E7005208A9
:1035E600E6000800F401F501701CFA2AFB2A012BFB
:1035F6007208F4070318F50A7308F507013003107B
:10360600F20DF30DFF3E031D022B01300310F10CEA
:10361600F00CFF3E031D092B70087104031D142BCB
:10362600152BF72A7508F1007408F00008007008D9
:10363600710403191F2B202B4F2BF501F50A2E2B96
:1036460001300310F00DF10DFF3E031D242B013058
:10365600F4007408F507F11F312B322B232B710868
:103666007302031D382B70087202031C3B2B3C2B84
:10367600422B7008F2027108031CF303F3020130B7
:103686000310F10CF00CFF3E031D432B0130F50235
:10369600031D4E2B4F2B322B7308F1007208F000DE
:1036A6000800F000701C582B592B5D2B8312031356
:1036B6000514602B831203130510F01C632B642B77
:1036C600662B8514672B8510701D6A2B6B2B6D2B53
:1036D60005156E2B0511F01D712B722B742B85159C
:1036E600752B8511701E782B792B7B2B05167C2B61
:1036F6000512F01E7F2B802B822B8516832B8512BD
:10370600701F862B872B892B05178A2B0513F01F15
:103716008D2B8E2B902B8517912B85130800F80186
:10372600F901B72B78087307F6007408F50003183B
:10373600F50AF81F9F2BF5037508F7007708831223
:103746000313FF00760884000A168A1500200A165D
:103756008A150A168A1100200A168A150130F807FA
:103766000318F90A0030F90778087307F600740899
:10377600F5000318F50AF81FC12BF5037508F700C5
:10378600770883120313FF00760884000A168A1549
:1037960000200A168A15003A031DD22BD32B952B2F
:1037A6000800FB01FC01760877040319DB2BDC2BF0
:1037B600132CFD01FD0AEA2B01300310F60DF70D5F
:1037C600FF3E031DE02B0130FA007A08FD07F71FC4
:1037D600ED2BEE2BDF2B01300310FB0DFC0DFF3E16
:1037E600031DEF2B77087902031DFB2B7608780261
:1037F600031CFE2BFF2B062C7608F8027708031C09
:10380600F903F9027B1401300310F70CF60CFF3EA6
:10381600031D072C0130FD02031D122C132CEE2B69
:103826007C08F7007B08F60008001430F5007930B4
:10383600F400F40B1C2CF50B1C2C212C30300A1632
:103846008A15B1220A168A150730F5007D30F40074
:10385600F40B2B2CF50B2B2C30300A168A15B122C3
:103866000A168A153530F400F40B372C30300A1658
:103876008A15B1220A168A1538300A168A15B12217
:103886000A168A1510300A168A15B1220A168A15E2
:1038960001300A168A15B1220A168A1506300A164A
:1038A6008A15B1220A168A150F300A168A15B12210
:1038B6000A168A15080000307005F80000307105F8
:1038C600F90080307205FA007F307305FB007B0833
:1038D6007A0479047804031D712C722C7A2C00303A
:1038E600F3000030F2000030F1000030F00000304C
:1038F6007405F80000307505F90080307605FA0089
:103906007F307705FB007B087A0479047804031D71
:103916008D2C8E2C962C0030F7000030F6000030EF
:10392600F5000030F40077087306031DA42C760812
:103936007206031DA42C75087106031DA42C7408B9
:1039460070060319A72CA82CAA2C0310AB2C031461
:10395600080073087204710470040319B32CB42CA4
:10396600F72CF901F90AC42C0130F8000310F00D08
:10397600F10DF20DF30DF80BB92C0130F8007808B3
:10398600F907F31FC72CC82CB72C73087702031D41
:10399600D62C72087602031DD62C71087502031DFB
:1039A600D62C70087402031CD92CDA2CE82C70086B
:1039B600F4027108031C710FF5027208031C720FE2
:1039C600F6027308031C730FF70201300310F30CA1
:1039D600F20CF10CF00CFF3E031DE92C0130F9024C
:1039E600031DF62CF72CC82C7708F3007608F20096
:1039F6007508F1007408F0000800F601F31F042DA5
:103A0600052D0C2DF209F309F20A0319F30AF60142
:103A1600F60AF11F0F2D102D152DF009F109F00AE8
:103A26000319F10A7008710403191A2D1B2D4A2D6A
:103A3600F501F50A292D01300310F00DF10DFF3EB9
:103A4600031D1F2D0130F4007408F507F11F2C2DFE
:103A56002D2D1E2D71087302031D332D7008720261
:103A6600031C362D372D3D2D7008F2027108031CFC
:103A7600F303F30201300310F10CF00CFF3E031DBB
:103A86003E2D0130F502031D492D4A2D2D2D7608B8
:103A960003194E2D4F2D542DF209F309F20A03197D
:103AA600F30A7308F1007208F00008000030FC0009
:103AB6000030FB000030FA000030F9007308720491
:103AC600710470040319682D692DB62DFD01FD0AD8
:103AD600792D0130F8000310F00DF10DF20DF30D04
:103AE600F80B6E2D0130F8007808FD07F31F7C2DCA
:103AF6007D2D6C2D0130F8000310F90DFA0DFB0D2C
:103B0600FC0DF80B7F2D73087702031D942D7208A8
:103B16007602031D942D71087502031D942D7008FD
:103B26007402031C972D982DA72D7008F4027108B6
:103B3600031C710FF5027208031C720FF60273085C
:103B4600031C730FF702791401300310F30CF20C07
:103B5600F10CF00CFF3E031DA82D0130FD02031DE4
:103B6600B52DB62D7D2D7C08F3007B08F2007A0872
:103B7600F1007908F000080083120313A101F81F71
:103B8600C52DC62DCD2DF709F809F70A0319F80A30
:103B9600A101A10AFA1FD02DD12DDA2DF909FA09B2
:103BA600F90A0319FA0A0130FB007B08A106A201F3
:103BB600A301770878040319E12DE22D192EA0013F
:103BC600A00AF02D01300310F70DF80DFF3E031D7E
:103BD600E62D0130FB007B08A007F81FF32DF42D1E
:103BE600E52D01300310A20DA30DFF3E031DF52D9B
:103BF60078087A02031D012E77087902031C042E29
:103C0600052E0C2E7708F9027808031CFA03FA022F
:103C1600221401300310F80CF70CFF3E031D0D2E85
:103C26000130A002031D182E192EF42D21080319A8
:103C36001D2E1E2E232EA209A309A20A0319A30ACA
:103C46002308F8002208F700080003108312031364
:103C5600530D540DD5005508DB005B08031D342EAB
:103C6600352E3E2E0030D4000030D3000030D20076
:103C76000030D100A32E5108D5005208D6005308B3
:103C8600D7005408D8001F300310D80CD70CD60C18
:103C9600D50CFF3E031D472E5508D9005908DA00FA
:103CA600D317FF30D105FF30D205FF30D3050030E2
:103CB600D4059630DB02DB1F612E622E7C2E5B085C
:103CC600803A973E0318682E692E6A2E352E0130EB
:103CD6000310D40CD30CD20CD10CFF3E031D6B2E5B
:103CE6000130D5005508DB07031D7A2E7B2E6A2E80
:103CF600932E20305B02031C812E822E8E2E352EB3
:103D06000130D5000310D10DD20DD30DD40DD50B36
:103D1600852E0130DB025B08031D922E932E832E27
:103D26005A080319972E982EA32ED109D209D30922
:103D3600D409D10A0319D20A0319D30A0319D40ADA
:103D4600080000307005F80000307105F900803079
:103D56007205FA007F307305FB007B087A0479044C
:103D66007804031DB72EB82EC02E0030F3000030A5
:103D7600F2000030F1000030F00000307405F80069
:103D860000307505F90080307605FA007F3077053A
:103D9600FB007B087A0479047804031DD32ED42E05
:103DA600DC2E0030F7000030F6000030F500003061
:103DB600F400F31FDF2EE02E042F0030F800003051
:103DC600F9000030FA008030FB007008F802710834
:103DD600031C710FEF2EF02EF9027208031C720FEE
:103DE600F52EF62EFA027308031C730FFB2EFC2E1B
:103DF600FB027B08F3007A08F2007908F1007808E4
:103E0600F000F71F072F082F2C2F0030F800003086
:103E1600F9000030FA008030FB007408F8027508DB
:103E2600031C750F172F182FF9027608031C760F3F
:103E36001D2F1E2FFA027708031C770F232F242F1E
:103E4600FB027B08F7007A08F6007908F500780887
:103E5600F4008030F3068030F70677087302031DFE
:103E66003E2F76087202031D3E2F75087102031D50
:103E76003E2F740870020318412F422F442F03105F
:103E8600452F03140800F800780803194B2F4C2F10
:103E9600602FF31F4F2F502F602F7009FA00710902
:103EA600FB007209FC007309FD00FA0A0319FB0AFC
:103EB6000319FC0A0319FD0A682F7308FD0072082E
:103EC600FC007108FB007008FA00730872047104A4
:103ED6007004031D6F2F702F792F0030F300003010
:103EE600F2000030F1000030F000FF2F9630F400B1
:103EF6007408F9008B2F0130F4007408F9070130BB
:103F06000310FD0CFC0CFB0CFA0CFF3E031D832F6B
:103F1600FE307D05031D902F912F7E2FAD2F013092
:103F2600F4007408F9070130FA070030031801306D
:103F3600FB07003003180130FC070030031801307E
:103F4600FD0701300310FD0CFC0CFB0CFA0CFF3EC8
:103F5600031DA52FFF307D05031DB22FB32F922F12
:103F6600BF2F0130F9020130F4000310FA0DFB0DEA
:103F7600FC0DFD0DF40BB82FFC1BC22FC32FC92F50
:103F8600023079020318C82FC92FB42F7918CC2F05
:103F9600CD2FD52FFF30FA05FF30FB057F30FC050E
:103FA600FF30FD050310F90C7908F400F501F60160
:103FB600F70118300310F40DF50DF60DF70DFF3E61
:103FC600031DDD2F7408FA047508FB047608FC044B
:103FD6007708FD0478080319F12FF22FF72FF31F46
:103FE600F52FF62FF72FFD177D08F3007C08F2005A
:0A3FF6007B08F1007A08F0000800D3
:04400E00D4E0FFFFFC
:00000001FF
