:020000040000FA
:060000000A128A11EF2F25
:10000800F300F201731C09280A280E287008F10071
:100018007108F2070310F00D0310F30C7308031DA9
:1000280016281728062872080800831203132708C1
:100038008039A8002808B1002708A8002807A900C7
:100048002908B800A61F29282A282B283814380878
:1000580003192F2830284028380A031D342835284A
:100068003D280030A7000030A6000030A500003071
:10007800A400A617A70148280030A7000030A60052
:100088000030A5000030A40023088039A800280803
:10009800B1062308A8002807A9002908B900A21F4B
:1000A8005628572858283914390803195C285D2818
:1000B8006D28390A031D612862286A280030A300C8
:1000C8000030A2000030A1000030A000A217A30158
:1000D80075280030A3000030A2000030A1000030D5
:1000E800A0002308220421042004031D7C287D2865
:1000F80096280030A7000030A6000030A500003088
:10010800A4008030A6047F30A7043108A80028087E
:10011800A7042708A3002608A2002508A100240890
:10012800A000F5293808031D9A289B28A428003028
:10013800A3000030A2000030A1000030A000F52983
:100148003808A800A9012908AB0039082802AA0024
:10015800031CAB032A087F3EB2002B080318013E9C
:10016800003EB3002708B0002608AF002508AE00FF
:100178002408AD000030A7000030A6000030A5001C
:100188000030A4000030B7000030B6000030B500E1
:100198000030B400B9011A2939080319D428D52820
:1001A800F5280130A8000310AD0DAE0DAF0DB00D50
:1001B800A80BD7280130A8000310A40DA50DA60D83
:1001C800A70DA80BE028B71FEA28EB28EC28241471
:1001D8000130A8000310B40DB50DB60DB70DA80B6E
:1001E800EE2823083002031D032922082F02031DCD
:1001F800032921082E02031D032920082D02031CB0
:1002080006290729162937172008AD022108031CDB
:10021800210FAE022208031C220FAF022308031C81
:10022800230FB0020130A8002808B9071A30390294
:10023800031C1F292029D02830082F042E042D0440
:100248000319272928294729341447290130A800E8
:100258000310A40DA50DA60DA70DA80B2C29B71FDB
:1002680036293729382924140130A8000310B40D81
:10027800B50DB60DB70DA80B3A29FF30B207031814
:10028800B30AFF30B307A61F4A294B292A29B90107
:10029800B71F4F2950296C29FF303405A800FF30BB
:1002A8003505A900FF303605AA007F303705AB00B9
:1002B8002B082A04290428040319632964296729B7
:1002C800B901B90A6C29241C6A296B296C2964298B
:1002D8003908031970297129A2290130A4070030AF
:1002E80003180130A507003003180130A6070030B5
:1002F80003180130A707271C82298329A22924086B
:10030800A8002508A9002608AA002708AB00013084
:10031800AC002B0DAB0CAA0CA90CA80CAC0B8D29AE
:100328002B08A7002A08A6002908A5002808A40069
:100338000130B2070318B30A0030B3073308803A14
:10034800FF0080307F02031DAB29FF303202031CFF
:10035800AE29AF29BD29FF3083120313B200003044
:10036800B3000030A7000030A6000030A500003020
:10037800A400831203133308803AFF0080307F0201
:10038800031DC829013032020318CB29CC29D929E9
:1003980083120313B201B3010030A7000030A60096
:1003A8000030A5000030A400B10183120313320805
:1003B800A8002808B800381CE229E329E529A6176F
:1003C800E9297F30A8002808A6053808A8000310E6
:1003D800280CA9002908A7003108A8002808A704A4
:1003E8008D2808007308803983120313A0002008A1
:1003F800F8007308A0002007A1002108FA00F21FE6
:10040800062A072A082A7A147A0803190C2A0D2AB8
:100418001D2A7A0A031D112A122A1A2A0030F3000B
:100428000030F2000030F1000030F000F217F30164
:10043800252A0030F3000030F2000030F1000030CF
:10044800F00077088039A0002008F90079087806BC
:1004580003192F2A302A312A78177708A000200795
:10046800A1002108F900F61F3A2A3B2A3C2A7914F0
:1004780079080319402A412A512A790A031D452A75
:10048800462A4E2A0030F7000030F6000030F5000A
:100498000030F400F617F701592A0030F700003051
:1004A800F6000030F5000030F4007A0879020318ED
:1004B8005E2A5F2AA32A781F622A632A672A803065
:1004C800A0002008F8067A08A0002008FB00790898
:1004D800A0002008FA007B08A0002008F900700896
:1004E800A0002008FB007408A0002008F0007B088A
:1004F800A0002008F4007108A0002008FB0075087F
:10050800A0002008F1007B08A0002008F500720870
:10051800A0002008FB007608A0002008F2007B0855
:10052800A0002008F6007308A0002008FB00770848
:10053800A0002008F3007B08A0002008F700FB01BA
:100548007908A000A1012108A3007A082002A200CE
:10055800031CA3032308803AFF0080307F02031D99
:10056800B72A1A302202031CBA2ABB2AFC2A7308AB
:10057800720471047004031DC22AC42A0130C52AFA
:10058800003083120313A0002008FB000030F300A2
:100598000030F2000030F1000030F0007908A000CF
:1005A8002008FA00022B7B1CDA2ADB2AE62A7B08C1
:1005B80083120313A0000310200C0138A1002108A6
:1005C800FB00E82A0310FB0C701CEB2AEC2AED2A2E
:1005D800FB17013083120313A000730DF30CF20C08
:1005E800F10CF00CA00BF12A0130A0002008FA074A
:1005F80079087A02031C012B022BD72A781B052BBA
:10060800062B552B7A08031D0A2B0B2B142B0030B5
:10061800F3000030F2000030F1000030F0008D2CC3
:100628007408F007750803110318013E03191D2B00
:10063800F107760803110318013E0319242BF2076A
:10064800770803110318013E03192B2BF307731CBA
:100658002E2B2F2B0D2C7B1C322B332B3E2B7B0868
:1006680083120313A0000310200C0138A1002108F5
:10067800FB00402B0310FB0C701C432B442B452B19
:10068800FB17013083120313A000730DF30CF20C57
:10069800F10CF00CA00B492B0130A0002008FA0740
:1006A8000D2C7308803AFF007708803A7F02031DFB
:1006B800672B76087202031D672B75087102031DEC
:1006C800672B7408700203186A2B6B2BC52BFF303D
:1006D80083120313A000FF30A100FF30A200FF30F7
:1006E800A3007408A4007508A5007608A60077087A
:1006F800A7007008A4027108031C710F842B852BB6
:10070800A5027208031C720F8A2B8B2BA602730892
:10071800031C730F902B912BA7022408A007250810
:100728000318250F982B992BA10726080318260FC5
:100738009E2B9F2BA20727080318270AA307230825
:10074800F3002208F2002108F1002008F0008030B0
:10075800A0002008F806FB09FB0A7B08031DB52B3F
:10076800B62BD32B0130F007003003180130F10706
:10077800003003180130F207003003180130F30786
:10078800D32B7408F0027508031C750FF102760864
:10079800031C760FF2027708031C770FF302730825
:1007A800720471047004031DDA2BDB2B092C7B08FF
:1007B800031DDF2BE02B092C0030F3000030F20082
:1007C8000030F1000030F0008D2C0130831203134B
:1007D800A0000310F00DF10DF20DF30DA00BED2BA1
:1007E800FB1FF72BF82BF92B70147B1CFC2BFD2B14
:1007F800002C0314FB0D022C0310FB0D7A080319BF
:10080800062C072C092C0130FA02F21F0C2C0D2C97
:10081800E92BF901FB1F112C122C202C7B087F39A6
:100828000319172C182C1B2CF901F90A202C701C01
:100838001E2C1F2C202C182C79080319242C252C4D
:100848005B2C0130F007003003180130F10700304D
:1008580003180130F207003003180130F307731C46
:10086800362C372C5B2C700883120313A0007108F8
:10087800A1007208A2007308A3000130A400230D90
:10088800A30CA20CA10CA00CA40B432C2308F3006E
:100898002208F2002108F1002008F0007A0A031962
:1008A800562C572C5B2C0130A0002008FA077A0A36
:1008B80003195F2C602C652C7A08031D642C652CA9
:1008C800732C0030F3000030F2000030F1000030EB
:1008D800F0007A08031D712C722C732CF8017A1C15
:1008E800762C772C792CF2177F2C7F308312031308
:1008F800A0002008F2057A0883120313A000031051
:10090800200CA1002108F300F81F8B2C8C2C8D2CB7
:10091800F31708008312031333088039B800380826
:10092800BD003308B8003807B9003908C300B21F42
:100938009E2C9F2CA02C431443080319A42CA52CEF
:10094800B42C430A031DA92CAA2CB22C0030B300E6
:100958000030B2000030B1000030B000B217BC2C3B
:100968000030B3000030B2000030B1000030B000F9
:1009780037088039B8003808BD063708B800380786
:10098800B9003908C200B61FCA2CCB2CCC2C421493
:1009980042080319D02CD12CE02C420A031DD52C77
:1009A800D62CDE2C0030B7000030B6000030B50081
:1009B8000030B400B617E82C0030B7000030B6009D
:1009C8000030B5000030B40042080319EC2CED2CBF
:1009D800F22C4308031DF12CF22CFB2C0030B30041
:1009E8000030B2000030B1000030B000EE2F300807
:1009F800B8003808F00036080A168A11D9270A12F2
:100A08008A11710883120313C9007008C8004808C6
:100A1800B800B901BA01BB013B08C1003A08C000DF
:100A28003908BF003808BE004908B800B901BA0142
:100A3800BB013B08C7003A08C6003908C50038089A
:100A4800C4003108B8003808F00035080A168A11C1
:100A5800D9270A128A11710883120313C900700872
:100A6800C8004808B800B901BA01BB013808BE0778
:100A7800390803110318013E0319432DBF073A082B
:100A880003110318013E03194A2DC0073B0803113F
:100A98000318013E0319512DC1074908B800B901CF
:100AA800BA01BB013808C407390803110318013E0D
:100AB80003195F2DC5073A0803110318013E0319EE
:100AC800662DC6073B0803110318013E03196D2D57
:100AD800C7073208B8003808F00034080A168A1127
:100AE800D9270A128A11710883120313C9007008E2
:100AF800C8004808B800B901BA01BB013808BE07E8
:100B0800390803110318013E03198B2DBF073A0852
:100B180003110318013E0319922DC0073B08031166
:100B28000318013E0319992DC1074908B800B901F6
:100B3800BA01BB013808C407390803110318013E7C
:100B48000319A72DC5073A0803110318013E031915
:100B5800AE2DC6073B0803110318013E0319B52D36
:100B6800C7070830B8000310BE0DBF0DC00DC10D7A
:100B7800B80BB72D3108B8003808F00034080A1649
:100B88008A11D9270A128A11710883120313C9001E
:100B98007008C8004808B8004908B900BA01BB0184
:100BA8003808BE07390803110318013E0319DD2D63
:100BB800BF073A0803110318013E0319E42DC007C3
:100BC8003B0803110318013E0319EB2DC107300838
:100BD800B8003808F00035080A168A11D9270A1211
:100BE8008A11710883120313C9007008C8004808E5
:100BF800B8004908B900BA01BB013808BE0739086E
:100C080003110318013E03190A2EBF073A080311FE
:100C18000318013E0319112EC0073B0803110318DE
:100C2800013E0319182EC1070830B8000310BE0D85
:100C3800BF0DC00DC10DB80B1A2E3008B80038080A
:100C4800F00034080A168A11D9270A128A11710885
:100C580083120313C9007008C8004808B80049087F
:100C6800B900BA01BB013808BE07390803110318D7
:100C7800013E0319402EBF073A0803110318013E2D
:100C88000319472EC0073B0803110318013E031937
:100C98004E2EC1073108B8003808F00036080A1689
:100CA8008A11D9270A128A11710883120313C900FD
:100CB8007008C8004808B8004908B900BA01BB0163
:100CC8003808C407390803110318013E03196D2EAB
:100CD800C5073A0803110318013E0319742EC60705
:100CE8003B0803110318013E03197B2EC70732087E
:100CF800B8003808F00035080A168A11D9270A12F0
:100D08008A11710883120313C9007008C8004808C3
:100D1800B8004908B900BA01BB013808C407390846
:100D280003110318013E03199A2EC5073A08031147
:100D38000318013E0319A12EC6073B080311031827
:100D4800013E0319A82EC7073208B8003808F0007A
:100D580036080A168A11D9270A128A1171088312CD
:100D68000313C9007008C8004808B8004908B9004A
:100D7800BA01BB0108300310B80DB90DBA0DBB0D8F
:100D8800FF3E031DBF2E3808C40739080311031896
:100D9800013E0319D02EC5073A0803110318013E76
:100DA8000319D72EC6073B0803110318013E031980
:100DB800DE2EC7073E08B8003F08B9004008BA0051
:100DC8004108BB0018300310BB0CBA0CB90CB80CA6
:100DD800FF3E031DE72E3808C4073908031103181E
:100DE800013E0319F82EC5073A0803110318013EFE
:100DF8000319FF2EC6073B0803110318013E031908
:100E0800062FC7070830B8000310BE0DBF0DC00D70
:100E1800C10DB80B082F43084207B800B901B90D36
:100E28003808823EC80039080318013EFF3EC90051
:100E38003A2F0130B8000310C40DC50DC60DC70DFB
:100E4800B80B1F2FC11F292F2A2F2B2F4414013015
:100E5800B8000310BE0DBF0DC00DC10DB80B2D2F6E
:100E6800FF30C8070318C90AFF30C907C61F3D2F3E
:100E78003E2F1D2FC201C11F422F432F5F2FFF306E
:100E88003E05B800FF303F05B900FF304005BA0005
:100E98007F304105BB003B083A0439043804031984
:100EA800562F572F5A2FC201C20A5F2F441C5D2F9D
:100EB8005E2F5F2F572F42080319632F642F952F3A
:100EC8000130C407003003180130C507003003188B
:100ED8000130C607003003180130C707471C752FBB
:100EE800762F952F4408B8004508B9004608BA007F
:100EF8004708BB000130BC003B0DBB0CBA0CB90C59
:100F0800B80CBC0B802F3B08C7003A08C60039084C
:100F1800C5003808C4000130C8070318C90A0030E2
:100F2800C9074908803AFF0080307F02031D9E2FC1
:100F3800FF304802031CA12FA22FAD2F7F30831250
:100F48000313C7008030C6000030C5000030C4005D
:100F5800E22F831203134908803AFF0080307F0292
:100F6800031DB82F013048020318BB2FBC2FC82F10
:100F7800003083120313C7000030C6000030C500DC
:100F88000030C400BD01E22F831203134808B800E3
:100F98003808C300FF30C405FF30C5057F30C605DB
:100FA8000030C705431CD92FDA2FDB2FC61743089B
:100FB800B8000310380CB9003908C7003D08B8005C
:100FC8003808C7044708B3004608B2004508B1000E
:100FD8004408B000080083120313EB01EC018313EB
:100FE800A0308400B4300A168A117C270A128A11AC
:080FF80083010A128A15B62DCF
:10100600F30083120313871073080A128A1523202C
:101016000A128A158312031307140730F2007D3073
:10102600F100F10B1428F20B142883120313071096
:10103600C730F1001E28F10B1D28212822280800A0
:10104600F000701C272828282C2883120313051467
:101056002F28831203130510F01C32283328352855
:10106600851436288510701D39283A283C28051520
:101076003D280511F01D40284128432885154428A0
:101086008511701E472848284A2805164B28051240
:10109600F01E4E284F285128851652288512701F9B
:1010A600552856285828051759280513F01F5C2877
:1010B6005D285F288517602885130800F801F90167
:1010C600862878087307F6007408F5000318F50AF1
:1010D600F81F6E28F5037508F700770883120313C7
:1010E600FF00760884000A168A1100200A128A1563
:1010F6000A168A1184270A128A150130F80703187E
:10110600F90A0030F90778087307F6007408F50045
:101116000318F50AF81F9028F5037508F7007708F5
:1011260083120313FF00760884000A168A11002032
:101136000A128A15003A031DA128A228642808006D
:101146001430F5007930F400F40BA728F50BA72826
:10115600AC2830300A128A1503200A128A15073085
:10116600F5007D30F400F40BB628F50BB6283030C8
:101176000A128A1503200A128A153530F400F40B78
:10118600C22830300A128A1503200A128A1538300E
:101196000A128A1503200A128A1510300A128A15B5
:1011A60003200A128A1501300A128A1503200A1230
:1011B6008A1506300A128A1503200A128A150F307C
:1011C6000A128A1503200A128A150800F2001D2940
:1011D6003030F0007008F30045293130F000700817
:1011E600F30045293230F0007008F300452933300A
:1011F600F0007008F30045293430F0007008F30061
:1012060045293530F0007008F30045293630F000E6
:101216007008F30045293730F0007008F3004529BF
:101226003830F0007008F30045293930F0007008B6
:10123600F30045297208F000F1017108003A03191C
:10124600252945297008003A0319EB28013A0319A4
:10125600F028033A0319F528013A0319FA28073A40
:101266000319FF28013A03190429033A0319092926
:10127600013A03190E290F3A03191329013A0319E2
:1012860018294529730808000310831203134C0D0F
:101296004D0DCE004E08D4005408031D5329542981
:1012A6005D290030CD000030CC000030CB0000308E
:1012B600CA00C2294A08CE004B08CF004C08D0000D
:1012C6004D08D1001F300310D10CD00CCF0CCE0C22
:1012D600FF3E031D66294E08D2005208D300CC17E4
:1012E600FF30CA05FF30CB05FF30CC050030CD05F9
:1012F6009630D402D41F802981299B295408803A2C
:10130600973E031887298829892954290130031013
:10131600CD0CCC0CCB0CCA0CFF3E031D8A29013028
:10132600CE004E08D407031D99299A298929B22986
:1013360020305402031CA029A129AD2954290130CB
:10134600CE000310CA0DCB0DCC0DCD0DCE0BA429AE
:101356000130D4025408031DB129B229A229530829
:101366000319B629B729C229CA09CB09CC09CD095F
:10137600CA0A0319CB0A0319CC0A0319CD0A0800B5
:10138600831203135808CD005708CC005608CB002B
:101396005508CA000A128A1547210A128A158312AD
:1013A60003134A08D9005908E20062080A128A158E
:1013B600E9200A128A15831203135808AF0057084A
:1013C600AE005608AD005508AC006208D900DA0137
:1013D600DB01DC015C08F3005B08F2005A08F1004F
:1013E6005908F00001300A128A1503230A128A15D9
:1013F600730883120313AB007208AA007108A900D0
:101406007008A8000A168A11B5270A128A158312CF
:1014160003132B08B7002A08B6002908B5002808C8
:10142600B4004130B3002030B2000030B1000030CB
:10143600B0000A128A118E240A128A158312031327
:101446003308CD003208CC003108CB003008CA0082
:101456000A128A1547210A128A15831203134A08AB
:10146600DD005D08E4006408D9005908E30063085C
:101476000A128A15E9200A128A1583120313D90063
:101486005908E1000A30D9005908F00063086402DF
:101496000A128A1104200A128A1583120313DA002B
:1014A6005A08E4006408D9005908E00060080A12E6
:1014B6008A15E9200A128A158312031361080800A7
:1014C600831203135808CD005708CC005608CB00EA
:1014D6005508CA000A128A1547210A128A1583126C
:1014E60003134A08D9005908E20062080A128A154D
:1014F600E9200A128A1583120313D9005908E1005C
:101506005808AF005708AE005608AD005508AC00A5
:101516006208D900DA01DB01DC015C08F3005B0834
:10152600F2005A08F1005908F00001300A128A1533
:1015360003230A128A15730883120313AB00720879
:10154600AA007108A9007008A8000A168A11B52712
:101556000A128A15831203132B08B7002A08B6004D
:101566002908B5002808B4004130B3002030B20085
:101576000030B1000030B0000A128A118E240A121F
:101586008A15831203133308CD003208CC003108C4
:10159600CB003008CA000A128A1547210A128A159A
:1015A600831203134A08DD005D08E4006408D900CD
:1015B6005908E30063080A128A15E9200A128A15F7
:1015C6000A3083120313D9005908F0006308640235
:1015D6000A128A1104200A128A1583120313DA00EA
:1015E6005A08E4006408D9005908E00060080A12A5
:1015F6008A15E9200A128A15831203136108080066
:10160600F80078080319082B092B1D2BF31F0C2B48
:101616000D2B1D2B7009FA007109FB007209FC00E5
:101626007309FD00FA0A0319FB0A0319FC0A0319D8
:10163600FD0A252B7308FD007208FC007108FB00EB
:101646007008FA007308720471047004031D2C2BD1
:101656002D2B362B0030F3000030F2000030F10065
:101666000030F000BC2B9630F4007408F900482BCB
:101676000130F4007408F90701300310FD0CFC0C6E
:10168600FB0CFA0CFF3E031D402BFE307D05031DAF
:101696004D2B4E2B3B2B6A2B0130F4007408F907B7
:1016A6000130FA07003003180130FB070030031839
:1016B6000130FC07003003180130FD07013003102C
:1016C600FD0CFC0CFB0CFA0CFF3E031D622BFF30DD
:1016D6007D05031D6F2B702B4F2B7C2B0130F902E0
:1016E6000130F4000310FA0DFB0DFC0DFD0DF40B9B
:1016F600752BFC1B7F2B802B862B0230790203185F
:10170600852B862B712B7918892B8A2B922BFF30F0
:10171600FA05FF30FB057F30FC05FF30FD050310A1
:10172600F90C7908F400F501F601F70118300310F9
:10173600F40DF50DF60DF70DFF3E031D9A2B7408FB
:10174600FA047508FB047608FC047708FD0478089B
:101756000319AE2BAF2BB42BF31FB22BB32BB42B29
:10176600FD177D08F3007C08F2007B08F1007A087B
:10177600F0000800831203135808CD005708CC0068
:101786005608CB005508CA000A128A1547210A12C4
:101796008A15831203134A08D9005908E100610823
:1017A6000A128A15E9200A128A1541308312031398
:1017B600B3002030B2000030B1000030B000610844
:1017C600D900DA01DB01DC015C08F3005B08F200FA
:1017D6005A08F1005908F00001300A128A1503234D
:1017E6000A128A15730883120313AB007208AA0043
:1017F6007108A9007008A8005808AF005708AE0085
:101806005608AD005508AC000A168A11B5270A120B
:101816008A15831203132B08B7002A08B600290875
:10182600B5002808B4000A128A118E240A128A15F5
:10183600831203133308E6003208E5003108E4009A
:101846003008E3006608CD006508CC006408CB00CC
:101856006308CA000A128A1547210A128A158312DA
:1018660003134A08D9005908E20062080A128A15C9
:10187600E9200A128A15413083120313B30020307F
:10188600B2000030B1000030B0006208D900DA01C1
:10189600DB01DC015C08F3005B08F2005A08F1008A
:1018A6005908F00001300A128A1503230A128A1514
:1018B600730883120313AB007208AA007108A9000B
:1018C6007008A8006608AF006508AE006408AD00A1
:1018D6006308AC000A168A11B5270A128A15831204
:1018E60003132B08B7002A08B6002908B5002808F4
:1018F600B4000A128A118E240A128A15831203135F
:101906003308E6003208E5003108E4003008E30059
:101916006608CD006508CC006408CB006308CA00E1
:101926000A128A1547210A128A15831203134A08D6
:10193600D9005908DF005F080A128A15E9200A1241
:101946008A1583120313D9005908E00060080800BD
:10195600F300831203131F149F141F083F394038E6
:101966009F00831603131F129F126D2D83160317F4
:101976000814C330831203139F058316031305143B
:10198600A52D831603178814831203131F08C33962
:1019960004389F00831603138514A52D8316031799
:1019A6000815831203131F08C33908389F008316CE
:1019B60003130515A52D8316031788158312031324
:1019C6001F08C3390C389F00831603138515A52DF0
:1019D600831603170816831203131F08C33910381A
:1019E6009F00831603138516A52D831603178816E5
:1019F600831203131F08C33914389F008316031379
:101A06000914A52D831603170817831203131F083D
:101A1600C33918389F00831603138914A52D83161E
:101A260003178817831203131F08C3391C389F0036
:101A3600831603130915A52D83160317091483129C
:101A460003131F08C33920389F0083160313061596
:101A5600A52D831603178914831203131F08C33990
:101A660024389F00831603138615A52D83160317A6
:101A76000915831203131F08C33928389F008316DC
:101A860003138614A52D83160317891583120313D2
:101A96001F08C3392C389F00831603130616A52D7D
:101AA600831603170916831203131F08C339303828
:101AB6009F00831603130614A52D83160317891694
:101AC600831203131F08C33934389F008316031388
:101AD6008616A52D7308F100F2017208003A031963
:101AE600752DA52D7108003A0319B92C013A031971
:101AF600C42C033A0319D12C013A0319DE2C073AF8
:101B06000319EB2C013A0319F82C033A0319052D96
:101B1600013A0319122D0F3A03191F2D013A031921
:101B26002C2D033A0319392D013A0319462D073A8C
:101B36000319532D013A0319602DA52D9F13B52DB9
:101B46009F17B52D7008F100F2017208003A0319CB
:101B5600AD2DB52D7108003A0319A12D013A0319CF
:101B6600A32DB52D08008316031789018801831656
:101B76000313850186018701F0010C300A128A15CC
:101B8600AB240A128A15F0010A300A128A15AB2410
:101B96000A128A150A128A15A3200A128A15B43067
:101BA60084000530FF0083138001840AFF0BD62DC5
:101BB600B93084000530FF008001840AFF0BDF2D59
:101BC600831203131F08C33928389F00A5308312D8
:101BD6000313E700E70BED2DF02D831203139F147B
:101BE6009F18F62DF72DF32D1E08E70067088316BC
:101BF6000313B300423083120313A3004C30A20038
:101C06000030A1000030A0008316031333088312AE
:101C16000313E700E801E901EA016A08F30069082D
:101C2600F2006808F1006708F00001300A128A1510
:101C360003230A128A15730883120313A700720876
:101C4600A6007108A5007008A4000A128A111920BE
:101C56000A128A1583120313230883160313B1008D
:101C660083120313220883160313B000831203138F
:101C7600210883160313AF0083120313200883166B
:101C86000313AE00831203130C131F08C339303835
:101C96009F00A53083120313E700E70B502E532E47
:101CA600831203139F149F18592E5A2E562E1E0860
:101CB600E700670883160313B2004230831203134A
:101CC600A3004C30A2000030A1000030A000831613
:101CD6000313320883120313E700E801E901EA015E
:101CE6006A08F3006908F2006808F1006708F00066
:101CF60001300A128A1503230A128A157308831201
:101D06000313A7007208A6007108A5007008A400B6
:101D16000A128A1119200A128A158312031323083C
:101D260083160313AD0083120313220883160313CD
:101D3600AC0083120313210883160313AB0083122E
:101D46000313200883160313AA00831203130C132C
:101D56000230E7006708F40001300A168A11992755
:101D66000A128A150130F3008030F4000A128A152F
:101D760061200A128A15073083120313E7006708E9
:101D8600F40001300A168A1199270A128A150530BD
:101D9600F3008030F4000A128A1561200A128A15AF
:101DA6000C3083120313E7006708F40001300A16AB
:101DB6008A1199270A128A150930F3008030F40037
:101DC6000A128A1561200A128A15F401F40A0230F1
:101DD6000A168A1199270A128A15831603133108DF
:101DE60083120313D80083160313300883120313D8
:101DF600D700831603132F0883120313D600831606
:101E060003132E0883120313D5000A128A156322C0
:101E16000A128A1583120313E70067088316031351
:101E2600B4002E3083120313E700670883160313EA
:101E3600B500310883120313D80083160313300844
:101E460083120313D700831603132F088312031379
:101E5600D600831603132E0883120313D5000A1225
:101E66008A15C3210A128A1583120313E70067082D
:101E760083160313B600310883120313D8008316A2
:101E86000313300883120313D700831603132F0896
:101E960083120313D600831603132E08831203132B
:101EA600D5000A128A15BD230A128A158312031356
:101EB600E700670883160313B700B430F300003059
:101EC600F4000A128A1561200A128A150630831256
:101ED6000313E7006708F40002300A168A119927EF
:101EE6000A128A15831603132D0883120313D800CA
:101EF600831603132C0883120313D70083160313C8
:101F06002B0883120313D600831603132A088312A1
:101F16000313D5000A128A1563220A128A15831240
:101F26000313E700670883160313B9002E308312E4
:101F36000313E700670883160313BA002D088312FC
:101F46000313D800831603132C0883120313D70038
:101F5600831603132B0883120313D6008316031369
:101F66002A0883120313D5000A128A15C3210A12FE
:101F76008A1583120313E700670883160313BB0051
:101F86002D0883120313D800831603132C0883121B
:101F96000313D700831603132B0883120313D600EB
:101FA600831603132A0883120313D5000A128A150F
:101FB600BD230A128A1583120313E70067088316E6
:101FC6000313BC00B930F3000030F4000A128A157E
:101FD60061200A128A150B3083120313E90026309A
:101FE600E8005D30E700E70BF62FE80BF62FE90B6C
:101FF600F62FE32D0A128A110028FF1B0A288313E5
:102006007F1883170008840A0319FF0A0800103096
:102016008A000408840A82070034503431343A3482
:102026000034503432343A340034503433343A3491
:02203600003474
:102EF80064008001840A04060319003404067D2F47
:102F0800F20083120313871472080A128A15232009
:102F18000A168A118312031307140D30F100F10BFE
:102F2800932F8312031307100800F5007503031D80
:102F38009E2F9F2FA72F74087F3E0A128A15032001
:102F48000A168A11B42F02307506031DAC2FAD2F57
:102F5800B42F7408BF3E0A128A1503200A168A1174
:102F68000800803083120313AB062F08F3002E08E5
:102F7800F2002D08F1002C08F0002B08F7002A08B1
:102F8800F6002908F5002808F4000A128A11F6212B
:102F98000A168A11730883120313AB007208AA0079
:102FA8007108A9007008A8000800F800F401F501EC
:102FB8007008F200F3017208F6007308F700781C35
:102FC800E62FE72FED2F7608F4070318F50A7708A0
:102FD800F50701300310F60DF70DFF3E031DEE2F28
:102FE8000310F80C7808031DFA2FFB2FE32F750840
:082FF800F1007408F00008006C
:04400E00D4E0FFFFFC
:00000001FF
