:020000040000FA
:100000000A128A11E52F2B34831203131A080800F1
:10001000F300F201731C0D280E2812287008F1005D
:100020007108F2070310F00D0310F30C7308031DA1
:100030001A281B280A2872080800F30083120313E9
:100040001F149F141F083F3940389F008316031365
:100050001F129F12DF28831603170814C330831260
:1000600003139F058316031305141729831603171B
:100070008814831203131F08C33904389F008316A2
:100080000313851417298316031708158312031306
:100090001F08C33908389F00831603130515172955
:1000A000831603178815831203131F08C3390C38EE
:1000B0009F00831603138515172983160317081647
:1000C000831203131F08C33910389F0083160313CC
:1000D00085161729831603178816831203131F0822
:1000E000C33914389F008316031309141729831684
:1000F00003170817831203131F08C33918389F000A
:10010000831603138914172983160317881783127C
:1001100003131F08C3391C389F00831603130915E6
:100120001729831603170914831203131F08C339F1
:1001300020389F008316031306151729831603170B
:100140008914831203131F08C33924389F008316B0
:100150000313861517298316031709158312031332
:100160001F08C33928389F008316031386141729E4
:10017000831603178915831203131F08C3392C38FC
:100180009F008316031306161729831603170916F3
:10019000831203131F08C33930389F0083160313DB
:1001A00006141729831603178916831203131F08D1
:1001B000C33934389F008316031386161729730832
:1001C000F100F2017208003A0319E72817297108B3
:1001D000003A03192B28013A03193628033A031968
:1001E0004328013A03195028073A03195D28013AB8
:1001F00003196A28033A03197728013A0319842856
:100200000F3A03199128013A03199E28033A03195A
:10021000AB28013A0319B828073A0319C528013A4F
:100220000319D22817299F1327299F1727297008F8
:10023000F100F2017208003A03191F2927297108F9
:10024000003A03191329013A03191529272908002F
:10025000831603178901880183160313850186011C
:100260008701F0010C300A128A111D200A128A112E
:10027000F0010A300A128A111D200A128A110A128C
:100280008A1517200A128A11003083120313A9005D
:100290000030A8002530A7008030A6000A128A1579
:1002A000C3210A128A11C53084000530FF00831370
:1002B0008001840AFF0B5729CA3084000530FF00F3
:1002C0008001840AFF0B6029003083160313BC00F1
:1002D0000030BB000030BA000030B90083120313B5
:1002E0001F08C33928389F00A53083120313E70085
:1002F000E70B78297B29831203139F149F18812908
:1003000082297E291E08E700670883160313B800B8
:10031000423083120313A9004C30A8000030A7001C
:100320000030A60083160313380883120313E70076
:10033000E801E901EA016A08F9006908F8006808BB
:10034000F7006708F60001300A128A1507210A1221
:100350008A11790883120313AD007808AC0077087E
:10036000AB007608AA000A128A158B230A128A119A
:1003700083120313290883160313B5008312031392
:10038000280883160313B400831203132708831667
:100390000313B30083120313260883160313B2005A
:1003A000831203130C131F08C33930389F00A53084
:1003B00083120313E700E70BDB29DE298312031303
:1003C0009F149F18E429E529E1291E08E700670822
:1003D00083160313B700423083120313A9004C3075
:1003E000A8000030A7000030A600831603133708CA
:1003F00083120313E700E801E901EA016A08F90042
:100400006908F8006808F7006708F60001300A126A
:100410008A1507210A128A11790883120313AD0085
:100420007808AC007708AB007608AA000A128A1593
:100430008B230A128A1183120313290883160313CC
:10044000B10083120313280883160313B00083122C
:100450000313270883160313AF0083120313260820
:1004600083160313AE00831203130C130230E7004C
:100470006708F40001300A168A11E3220A128A1171
:100480000130F3008030F4000A168A1106240A12A3
:100490008A11073083120313E7006708F400013064
:1004A0000A168A11E3220A128A110530F3008030FD
:1004B000F4000A168A1106240A128A110C308312DB
:1004C0000313E7006708F40001300A168A11E322DB
:1004D0000A128A110930F3008030F4000A168A11DA
:1004E00006240A128A11F401F40A02300A168A114B
:1004F000E3220A128A1183160313350883120313A9
:10050000D80083160313340883120313D70083160D
:100510000313330883120313D60083160313320820
:1005200083120313D5000A168A1160270A128A1152
:1005300083120313E700670883160313C5002E30E8
:1005400083120313E700670883160313C6003508F8
:1005500083120313D8008316031334088312031382
:10056000D70083160313330883120313D6008316B0
:100570000313320883120313D5000A168A11C0260A
:100580000A128A1183120313E70067088316031304
:10059000C700350883120313D800831603133408E9
:1005A00083120313D7008316031333088312031334
:1005B000D60083160313320883120313D5000A12E0
:1005C0008A159D220A128A1183120313E700670815
:1005D00083160313C800C530F3000030F4000A1678
:1005E0008A1106240A128A11063083120313E700C7
:1005F0006708F40002300A168A11E3220A128A11EF
:1006000083160313310883120313D80083160313D0
:10061000300883120313D700831603132F088312A5
:100620000313D600831603132E0883120313D50079
:100630000A168A1160270A128A1183120313E7002F
:10064000670883160313CA002E3083120313E700D2
:10065000670883160313CB00310883120313D800F5
:1006600083160313300883120313D7008316031372
:100670002F0883120313D600831603132E08831248
:100680000313D5000A168A11C0260A128A11831292
:100690000313E700670883160313CC0031088312A5
:1006A0000313D80083160313300883120313D700F3
:1006B000831603132F0883120313D6008316031324
:1006C0002E0883120313D5000A128A159D220A12DE
:1006D0008A1183120313E700670883160313CD0002
:1006E000CA30F3000030F4000A168A1106240A12F8
:1006F0008A110B3083120313E7006708F4000230FD
:100700000A168A11E3220A128A1183160313360885
:1007100083120313E700E801E901EA016A08F9001E
:100720006908F8006808F7006708F60000300A1248
:100730008A1507210A128A11790883160313C0004B
:100740007808BF007708BE007608BD004008831215
:100750000313D800831603133F0883120313D70033
:10076000831603133E0883120313D6008316031364
:100770003D0883120313D5000A128A155D200A1260
:100780008A1183120313E700670883160313BB0063
:10079000360883120313E700E801E901EA016A0859
:1007A000F9006908F8006808F7006708F6000030EB
:1007B0000A128A1507210A128A117908831603136F
:1007C000C4007808C3007708C2007608C100440856
:1007D00083120313D80083160313430883120313F1
:1007E000D70083160313420883120313D60083161F
:1007F0000313410883120313D5000A168A118925B1
:100800000A128A1183120313E70067088316031381
:10081000BA00360883120313E700E801E901EA0190
:100820006A08F9006908F8006808F7006708F60028
:1008300000300A128A1507210A128A1179088312D8
:100840000313D8007808D7007708D6007608D500BB
:100850000A168A118F230A128A1183120313EB00DE
:100860006B0883160313B900B930F3000030F400AD
:100870000A168A1106240A128A11033083120313FE
:10088000E9008A30E8005530E700E70B452CE80B1B
:10089000452CE90B452C8316031338080A128A15D8
:1008A00002200A128A118316031337080A128A15C6
:1008B00002200A128A110A128A1104200A128A11CD
:1008C000D03E83120313E700670883160313CF009B
:1008D0002B304F06031D6D2C6E2C772C01308312AC
:1008E0000313E700670883160313B6076E292D303C
:1008F0004F06031D7C2C7D2C802C0130B6026E2906
:100900006E290A128A1100288312031333088039D2
:10091000B8003808BD003308B8003807B9003908F6
:10092000C300B21F942C952C962C43144308031932
:100930009A2C9B2CAA2C430A031D9F2CA02CA82C7C
:100940000030B3000030B2000030B1000030B00021
:10095000B217B22C0030B3000030B2000030B1004A
:100960000030B00037088039B8003808BD063708B5
:10097000B8003807B9003908C200B61FC02CC12C16
:10098000C22C421442080319C62CC72CD62C420A8A
:10099000031DCB2CCC2CD42C0030B7000030B6007B
:1009A0000030B5000030B400B617DE2C0030B700C0
:1009B0000030B6000030B5000030B4004208031922
:1009C000E22CE32CE82C4308031DE72CE82CF12C47
:1009D0000030B3000030B2000030B1000030B00091
:1009E000E42F3008B8003808F00036080A168A11DB
:1009F00068230A128A11710883120313C900700850
:100A0000C8004808B800B901BA01BB013B08C100E1
:100A10003A08C0003908BF003808BE004908B800CD
:100A2000B901BA01BB013B08C7003A08C600390842
:100A3000C5003808C4003108B8003808F00035088F
:100A40000A168A1168230A128A1171088312031385
:100A5000C9007008C8004808B800B901BA01BB0154
:100A60003808BE07390803110318013E0319392D50
:100A7000BF073A0803110318013E0319402DC007B0
:100A80003B0803110318013E0319472DC10749080C
:100A9000B800B901BA01BB013808C407390803110D
:100AA0000318013E0319552DC5073A080311031811
:100AB000013E03195C2DC6073B0803110318013ED4
:100AC0000319632DC7073208B8003808F00034084E
:100AD0000A168A1168230A128A11710883120313F5
:100AE000C9007008C8004808B800B901BA01BB01C4
:100AF0003808BE07390803110318013E0319812D78
:100B0000BF073A0803110318013E0319882DC007D7
:100B10003B0803110318013E03198F2DC107490833
:100B2000B800B901BA01BB013808C407390803117C
:100B30000318013E03199D2DC5073A080311031838
:100B4000013E0319A42DC6073B0803110318013EFB
:100B50000319AB2DC7070830B8000310BE0DBF0D39
:100B6000C00DC10DB80BAD2D3108B8003808F0002C
:100B700034080A168A1168230A128A11710883122E
:100B80000313C9007008C8004808B8004908B90034
:100B9000BA01BB013808BE07390803110318013E2A
:100BA0000319D32DBF073A0803110318013E031997
:100BB000DA2DC0073B0803110318013E0319E12D8C
:100BC000C1073008B8003808F00035080A168A1145
:100BD00068230A128A11710883120313C90070086E
:100BE000C8004808B8004908B900BA01BB01380874
:100BF000BE07390803110318013E0319002EBF0771
:100C00003A0803110318013E0319072EC0073B08D9
:100C100003110318013E03190E2EC1070830B80056
:100C20000310BE0DBF0DC00DC10DB80B102E300846
:100C3000B8003808F00034080A168A1168230A122E
:100C40008A11710883120313C9007008C80048088C
:100C5000B8004908B900BA01BB013808BE07390815
:100C600003110318013E0319362EBF073A0803117A
:100C70000318013E03193D2EC0073B08031103185A
:100C8000013E0319442EC1073108B8003808F000AE
:100C900036080A168A1168230A128A11710883120B
:100CA0000313C9007008C8004808B8004908B90013
:100CB000BA01BB013808C407390803110318013E03
:100CC0000319632EC5073A0803110318013E0319DF
:100CD0006A2EC6073B0803110318013E0319712E43
:100CE000C7073208B8003808F00035080A168A111C
:100CF00068230A128A11710883120313C90070084D
:100D0000C8004808B8004908B900BA01BB01380852
:100D1000C407390803110318013E0319902EC507B3
:100D20003A0803110318013E0319972EC6073B0822
:100D300003110318013E03199E2EC7073208B8009D
:100D40003808F00036080A168A1168230A128A1138
:100D5000710883120313C9007008C8004808B8005E
:100D60004908B900BA01BB0108300310B80DB90D2C
:100D7000BA0DBB0DFF3E031DB52E3808C407390858
:100D800003110318013E0319C62EC5073A080311C3
:100D90000318013E0319CD2EC6073B0803110318A3
:100DA000013E0319D42EC7073E08B8003F08B9001A
:100DB0004008BA004108BB0018300310BB0CBA0C45
:100DC000B90CB80CFF3E031DDD2E3808C4073908E6
:100DD00003110318013E0319EE2EC5073A0803114B
:100DE0000318013E0319F52EC6073B08031103182B
:100DF000013E0319FC2EC7070830B8000310BE0DD2
:100E0000BF0DC00DC10DB80BFE2E43084207B80040
:100E1000B901B90D3808823EC80039080318013EEF
:100E2000FF3EC900302F0130B8000310C40DC50DBE
:100E3000C60DC70DB80B152FC11F1F2F202F212F37
:100E400044140130B8000310BE0DBF0DC00DC10D1C
:100E5000B80B232FFF30C8070318C90AFF30C90792
:100E6000C61F332F342F132FC201C11F382F392F24
:100E7000552FFF303E05B800FF303F05B900FF3069
:100E80004005BA007F304105BB003B083A043904F5
:100E9000380403194C2F4D2F502FC201C20A552F71
:100EA000441C532F542F552F4D2F42080319592FEF
:100EB0005A2F8B2F0130C407003003180130C507AB
:100EC000003003180130C607003003180130C7078F
:100ED000471C6B2F6C2F8B2F4408B8004508B900B6
:100EE0004608BA004708BB000130BC003B0DBB0CF4
:100EF000BA0CB90CB80CBC0B762F3B08C7003A08EB
:100F0000C6003908C5003808C4000130C8070318F6
:100F1000C90A0030C9074908803AFF0080307F02C3
:100F2000031D942FFF304802031C972F982FA32FE7
:100F30007F3083120313C7008030C6000030C50025
:100F40000030C400D82F831203134908803AFF00F1
:100F500080307F02031DAE2F013048020318B12FED
:100F6000B22FBE2F003083120313C7000030C6001B
:100F70000030C5000030C400BD01D82F8312031318
:100F80004808B8003808C300FF30C405FF30C50565
:100F90007F30C6050030C705431CCF2FD02FD12F7F
:100FA000C6174308B8000310380CB9003908C70049
:100FB0003D08B8003808C7044708B3004608B20027
:100FC0004508B1004408B0000800831603130A1254
:100FD0008A1103200A128A11CF008313A0308400E3
:100FE000B9300A168A11C6220A128A118312031313
:100FF000EC01ED01EE01EF0183010A128A112829AB
:10100400F20083160313981C082809280328720881
:101014008312031399008230F100DD30F000F00BED
:101024001128F10B1128162808001430F500793026
:10103400F400F40B1B28F50B1B28202830300A166B
:101044008A11FF220A128A150730F5007D30F40058
:10105400F40B2A28F50B2A2830300A168A11FF22AD
:101064000A128A153530F400F40B362830300A168B
:101074008A11FF220A128A1538300A168A11FF22B1
:101084000A128A1510300A168A11FF220A128A15CA
:1010940001300A168A11FF220A128A1506300A162E
:1010A4008A11FF220A128A150C300A168A11FF22AD
:1010B4000A128A150800831203135808AD00570852
:1010C400AC005608AB005508AA004230A900C8304D
:1010D400A8000030A7000030A6000A128A158B234E
:1010E4000A128A15831203132908CD002808CC009C
:1010F4002708CB002608CA000A168A110D250A12F1
:101104008A15831203134A08D9005908DC005808C9
:10111400AF005708AE005608AD005508AC00643067
:10112400F2000030F3005C08D900DA015908F0003D
:101134005A08F1000A168A1143230A128A15700804
:10114400F6007108F7000030F71BFF30F800F900D3
:1011540001300A128A1507210A128A1579088312A6
:101164000313AB007808AA007708A9007608A80042
:101174000A168A111F230A128A15831203132B08D5
:10118400CD002A08CC002908CB002808CA000A167A
:101194008A110D250A128A15831203134A08DB00EB
:1011A4005B08E0000A30F0000030F1006008D9006C
:1011B400DA015908F2005A08F3000A168A11A62423
:1011C4000A128A15700883120313DB005B08DD0022
:1011D400F630D9005908F0005D080A128A11082077
:1011E4000A128A15831203136007DA005A08DE0014
:1011F4005E080A168A1148240A128A1583120313F8
:10120400D9005908DF005F08080083120313A00007
:10121400200803190E290F292329F91F122913293C
:1012240023297609A2007709A3007809A400790983
:10123400A500A20A0319A30A0319A40A0319A50AFB
:101244002B297908A5007808A4007708A30076085C
:10125400A2007908780477047604031D322933291F
:101264003C290030F9000030F8000030F70000306D
:10127400F600C2299630FA007A08A1004E290130FE
:10128400FA007A08A10701300310A50CA40CA30CE2
:10129400A20CFF3E031D4629FE302505031D5329DC
:1012A4005429412970290130FA007A08A107013034
:1012B400A207003003180130A307003003180130DF
:1012C400A407003003180130A50701300310A50C52
:1012D400A40CA30CA20CFF3E031D6829FF302505B6
:1012E400031D75297629552982290130A10201306F
:1012F400FA000310A20DA30DA40DA50DFA0B7B2972
:10130400A41B852986298C290230210203188B29E4
:101314008C29772921188F2990299829FF30A20533
:10132400FF30A3057F30A405FF30A5050310A10CF1
:101334002108FA00FB01FC01FD0118300310FA0D2D
:10134400FB0DFC0DFD0DFF3E031DA0297A08A20430
:101354007B08A3047C08A4047D08A50420080319C1
:10136400B429B529BA29F91FB829B929BA29A51761
:101374002508F9002408F8002308F7002208F600DD
:101384000800831203132608AA002708AB002808C4
:10139400AC002908AD0006300310AA0DAB0DAC0D4E
:1013A400AD0DFF3E031DCE292D08F3002C08F200DD
:1013B4002B08F1002A08F0002608AE002708AF0029
:1013C4002808B0002908B10006300310AE0DAF0D97
:1013D400B00DB10DFF3E031DE7290030B200093006
:1013E400B3003D30B4000030B5002E08B2022F081F
:1013F400031C2F0FFE29FF29B3023008031C300FF2
:10140400042A052AB4023108031C310F0A2A0B2AC4
:10141400B5023508F7003408F6003308F500320841
:10142400F4000A168A1123260A128A157108FA0092
:101434007008F90001307A02003003197902031CA4
:10144400242A252A812A831203132608AA0027089E
:10145400AB002808AC002908AD0004300310AA0D25
:10146400AB0DAC0DAD0DFF3E031D302A2D08F3006E
:101474002C08F2002B08F1002A08F0002608AE0020
:101484002708AF002808B0002908B1000430031071
:10149400AE0DAF0DB00DB10DFF3E031D492A003056
:1014A400B2000930B3003D30B4000030B5002E085E
:1014B400B2022F08031C2F0F602A612AB3023008DE
:1014C400031C300F662A672AB4023108031C310F4B
:1014D4006C2A6D2AB5023508F7003408F600330883
:1014E400F5003208F4000A168A1123260A128A1516
:1014F4007108FA007008F9008316031318150130F7
:101504007A020030031979020318892A8A2A9C2A4C
:10151400790883160313990018128312031398177A
:1015240083160313871707178312031318168316DA
:10153400031398160800831203135808CD005708A4
:10154400CC005608CB005508CA000A168A110D258E
:101554000A128A15831203134A08D9005908E100B4
:1015640061080A168A1148240A128A154130831226
:101574000313B3002030B2000030B1000030B000DB
:101584006108D900DA01DB01DC015C08F9005B08C1
:10159400F8005A08F7005908F60001300A128A15B3
:1015A40007210A128A15790883120313AB007808FD
:1015B400AA007708A9007608A8005808AF005708C1
:1015C400AE005608AD005508AC000A168A111F2358
:1015D4000A128A15831203132B08B7002A08B600CF
:1015E4002908B5002808B4000A128A1184240A12B2
:1015F4008A15831203133308E6003208E500310824
:10160400E4003008E3006608CD006508CC006408F7
:10161400CB006308CA000A168A110D250A128A151E
:10162400831203134A08D9005908E20062080A1613
:101634008A1148240A128A15413083120313B30015
:101644002030B2000030B1000030B0006208D90090
:10165400DA01DB01DC015C08F9005B08F8005A08D8
:10166400F7005908F60001300A128A1507210A12F8
:101674008A15790883120313AB007808AA00770847
:10168400A9007608A8006608AF006508AE006408E3
:10169400AD006308AC000A168A111F230A128A15CA
:1016A400831203132B08B7002A08B6002908B500D3
:1016B4002808B4000A128A1184240A128A15831293
:1016C40003133308E6003208E5003108E40030086B
:1016D400E3006608CD006508CC006408CB0063080D
:1016E400CA000A168A110D250A128A1583120313D9
:1016F4004A08D9005908DF005F080A168A114824ED
:101704000A128A1583120313D9005908E0006008ED
:101714000800831203132D088039AE002E08B70089
:101724002D08AE002E07AF002F08BE00AC1F9B2B68
:101734009C2B9D2B3E143E080319A12BA22BB22BEC
:101744003E0A031DA62BA72BAF2B0030AD000030A3
:10175400AC000030AB000030AA00AC17AD01BA2BCE
:101764000030AD000030AC000030AB000030AA0007
:1017740029088039AE002E08B7062908AE002E07C6
:10178400AF002F08BF00A81FC82BC92BCA2B3F14BA
:101794003F080319CE2BCF2BDF2B3F0A031DD32B7E
:1017A400D42BDC2B0030A9000030A8000030A700A7
:1017B4000030A600A817A901E72B0030A9000030CB
:1017C400A8000030A7000030A60029082804270438
:1017D4002604031DEE2BEF2B082C0030AD00003047
:1017E400AC000030AB000030AA008030AC047F3085
:1017F400AD043708AE002E08AD042D08A9002C084E
:10180400A8002B08A7002A08A600672D3E08031D80
:101814000C2C0D2C162C0030A9000030A800003030
:10182400A7000030A600672D3E08AE00AF012F08C8
:10183400B1003F082E02B000031CB10330087F3E04
:10184400B80031080318013E003EB9002D08B60067
:101854002C08B5002B08B4002A08B3000030AD00F2
:101864000030AC000030AB000030AA000030BD00F6
:101874000030BC000030BB000030BA00BF018C2C2B
:101884003F080319462C472C672C0130AE00031087
:10189400B30DB40DB50DB60DAE0B492C0130AE0031
:1018A4000310AA0DAB0DAC0DAD0DAE0B522CBD1F2C
:1018B4005C2C5D2C5E2C2A140130AE000310BA0D92
:1018C400BB0DBC0DBD0DAE0B602C29083602031DEB
:1018D400752C28083502031D752C27083402031DB6
:1018E400752C26083302031C782C792C882C3D1780
:1018F4002608B3022708031C270FB4022808031C78
:10190400280FB5022908031C290FB6020130AE00C6
:101914002E08BF071A303F02031C912C922C422C34
:1019240036083504340433040319992C9A2CB92C41
:101934003A14B92C0130AE000310AA0DAB0DAC0D56
:10194400AD0DAE0B9E2CBD1FA82CA92CAA2C2A14BD
:101954000130AE000310BA0DBB0DBC0DBD0DAE0BB6
:10196400AC2CFF30B8070318B90AFF30B907AC1F15
:10197400BC2CBD2C9C2CBF01BD1FC12CC22CDE2C49
:10198400FF303A05AE00FF303B05AF00FF303C05A9
:10199400B0007F303D05B100310830042F042E041F
:1019A4000319D52CD62CD92CBF01BF0ADE2C2A1C36
:1019B400DC2CDD2CDE2CD62C3F080319E22CE32C86
:1019C400142D0130AA07003003180130AB07003092
:1019D40003180130AC07003003180130AD072D1C8B
:1019E400F42CF52C142D2A08AE002B08AF002C087B
:1019F400B0002D08B1000130B200310DB10CB00CB3
:101A0400AF0CAE0CB20BFF2C3108AD003008AC00AB
:101A14002F08AB002E08AA000130B8070318B90A32
:101A24000030B9073908803AFF0080307F02031D77
:101A34001D2DFF303802031C202D212D2F2DFF30AA
:101A440083120313B8000030B9000030AD00003039
:101A5400AC000030AB000030AA0083120313390835
:101A6400803AFF0080307F02031D3A2D0130380296
:101A740003183D2D3E2D4B2D83120313B801B901DC
:101A84000030AD000030AC000030AB000030AA00E4
:101A9400B701831203133808AE002E08BE003E1CA3
:101AA400542D552D572DAC175B2D7F30AE002E08CD
:101AB400AC053E08AE0003102E0CAF002F08AD009D
:101AC4003708AE002E08AD04FF2B080073088039D8
:101AD40083120313A0002008F8007308A000200755
:101AE400A1002108FA00F21F782D792D7A2D7A149D
:101AF4007A0803197E2D7F2D8F2D7A0A031D832DDD
:101B0400842D8C2D0030F3000030F2000030F10001
:101B14000030F000F217F301972D0030F30000308D
:101B2400F2000030F1000030F00077088039A000A6
:101B34002008F900790878060319A12DA22DA32DF8
:101B440078177708A0002007A1002108F900F61FE4
:101B5400AC2DAD2DAE2D791479080319B22DB32D0A
:101B6400C32D790A031DB72DB82DC02D0030F70001
:101B74000030F6000030F5000030F400F617F701ED
:101B8400CB2D0030F7000030F6000030F5000030B7
:101B9400F4007A0879020318D02DD12D152E781F60
:101BA400D42DD52DD92D8030A0002008F8067A0830
:101BB400A0002008FB007908A0002008FA007B0898
:101BC400A0002008F9007008A0002008FB00740899
:101BD400A0002008F0007B08A0002008F400710891
:101BE400A0002008FB007508A0002008F1007B0875
:101BF400A0002008F5007208A0002008FB00760869
:101C0400A0002008F2007B08A0002008F60073085A
:101C1400A0002008FB007708A0002008F3007B0840
:101C2400A0002008F700FB017908A000A101210809
:101C3400A3007A082002A200031CA3032308803A0D
:101C4400FF0080307F02031D292E1A302202031C5C
:101C54002C2E2D2E6E2E7308720471047004031D35
:101C6400342E362E0130372E003083120313A00099
:101C74002008FB000030F3000030F2000030F100D7
:101C84000030F0007908A0002008FA00742E7B1CB4
:101C94004C2E4D2E582E7B0883120313A0000310E4
:101CA400200C0138A1002108FB005A2E0310FB0C64
:101CB400701C5D2E5E2E5F2EFB1701308312031302
:101CC400A000730DF30CF20CF10CF00CA00B632EBE
:101CD4000130A0002008FA0779087A02031C732E49
:101CE400742E492E781B772E782EC72E7A08031D62
:101CF4007C2E7D2E862E0030F3000030F200003062
:101D0400F1000030F000FF2F7408F007750803118C
:101D14000318013E03198F2EF107760803110318E7
:101D2400013E0319962EF207770803110318013EAA
:101D340003199D2EF307731CA02EA12E7F2F7B1C4D
:101D4400A42EA52EB02E7B0883120313A00003102B
:101D5400200C0138A1002108FB00B22E0310FB0C5B
:101D6400701CB52EB62EB72EFB1701308312031349
:101D7400A000730DF30CF20CF10CF00CA00BBB2EB5
:101D84000130A0002008FA077F2F7308803AFF0073
:101D94007708803A7F02031DD92E76087202031D4C
:101DA400D92E75087102031DD92E74087002031808
:101DB400DC2EDD2E372FFF3083120313A000FF30FB
:101DC400A100FF30A200FF30A3007408A40075082E
:101DD400A5007608A6007708A7007008A402710879
:101DE400031C710FF62EF72EA5027208031C720F46
:101DF400FC2EFD2EA6027308031C730F022F032F63
:101E0400A7022408A00725080318250F0A2F0B2F63
:101E1400A10726080318260F102F112FA207270841
:101E24000318270AA3072308F3002208F200210855
:101E3400F1002008F0008030A0002008F806FB091B
:101E4400FB0A7B08031D272F282F452F0130F0079D
:101E5400003003180130F107003003180130F20795
:101E6400003003180130F307452F7408F002750899
:101E7400031C750FF1027608031C760FF202770833
:101E8400031C770FF3027308720471047004031DBA
:101E94004C2F4D2F7B2F7B08031D512F522F7B2F4F
:101EA4000030F3000030F2000030F1000030F000A8
:101EB400FF2F013083120313A0000310F00DF10D66
:101EC400F20DF30DA00B5F2FFB1F692F6A2F6B2FF1
:101ED40070147B1C6E2F6F2F722F0314FB0D742F45
:101EE4000310FB0D7A080319782F792F7B2F01300B
:101EF400FA02F21F7E2F7F2F5B2FF901FB1F832F26
:101F0400842F922F7B087F390319892F8A2F8D2FD5
:101F1400F901F90A922F701C902F912F922F8A2F7A
:101F240079080319962F972FCD2F0130F007003031
:101F340003180130F107003003180130F2070030B4
:101F440003180130F307731CA82FA92FCD2F700895
:101F540083120313A0007108A1007208A200730881
:101F6400A3000130A400230DA30CA20CA10CA00C0F
:101F7400A40BB52F2308F3002208F2002108F10076
:101F84002008F0007A0A0319C82FC92FCD2F013079
:101F9400A0002008FA077A0A0319D12FD22FD72FCD
:101FA4007A08031DD62FD72FE52F0030F300003019
:101FB400F2000030F1000030F0007A08031DE32F36
:101FC400E42FE52FF8017A1CE82FE92FEB2FF21705
:101FD400F12F7F3083120313A0002008F2057A0842
:101FE40083120313A0000310200CA1002108F300A6
:101FF400F81FFD2FFE2FFF2FF3170800FF1B0A28E1
:1020040083137F1883170008840A0319FF0A080042
:1020140010308A000408840A8207003450343134B2
:102024003A340034503432343A3400345034333493
:042034003A34003406
:10258C0064008001840A0406031900340406C72A77
:10259C00F20083120313871472080A168A11C823D7
:1025AC000A168A118312031307142130F100F10B60
:1025BC00DD2A8312031307100800F5007503031DB1
:1025CC00E82AE92AF12A74087F3E0A168A11FF22AA
:1025DC000A168A11FE2A02307506031DF62AF72AFE
:1025EC00FE2A7408BF3E0A168A11FF220A168A11A7
:1025FC000800F30083120313871073080A168A115C
:10260C00C8230A168A118312031307140730F20029
:10261C007D30F100F10B102BF20B102B83120313F6
:10262C000710C730F1001A2BF10B192B1D2B1E2B89
:10263C000800803083120313AB062F08F3002E081A
:10264C00F2002D08F1002C08F0002B08F7002A08E6
:10265C00F6002908F5002808F4000A128A156825E6
:10266C000A168A11730883120313AB007208AA00AE
:10267C007108A9007008A8000800F401F501701C8D
:10268C00482B492B4F2B7208F4070318F50A7308D3
:10269C00F50701300310F20DF30DFF3E031D502B17
:1026AC0001300310F10CF00CFF3E031D572B70088A
:1026BC007104031D622B632B452B7508F100740804
:1026CC00F0000800F800F401F5017008F200F301C5
:1026DC007208F6007308F700781C752B762B7C2B90
:1026EC007608F4070318F50A7708F507013003108C
:1026FC00F60DF70DFF3E031D7D2B0310F80C78082B
:10270C00031D892B8A2B722B7508F1007408F000BD
:10271C000800831203135808AD005708AC00560884
:10272C00AB005508AA004230A900C830A800003000
:10273C00A7000030A6000A128A158B230A168A11EC
:10274C00831203132908CD002808CC002708CB00DE
:10275C002608CA000A168A110D250A168A11831238
:10276C0003134A08D9005908DA005A080A168A11C4
:10277C0048240A168A1183120313D9005908DB0066
:10278C005B080800F000701CCC2BCD2BD12B8312D6
:10279C0003130514D42B831203130510F01CD72B31
:1027AC00D82BDA2B8514DB2B8510701DDE2BDF2B41
:1027BC00E12B0515E22B0511F01DE52BE62BE82B83
:1027CC008515E92B8511701EEC2BED2BEF2B0516C7
:1027DC00F02B0512F01EF32BF42BF62B8516F72B92
:1027EC008512701FFA2BFB2BFD2B0517FE2B0513E7
:1027FC00F01F012C022C042C8517052C85130800C6
:10280C00F801F9012B2C78087307F6007408F50011
:10281C000318F50AF81F132CF5037508F700770851
:10282C0083120313FF00760884000A168A11002015
:10283C000A168A110A168A11CE220A168A1101303A
:10284C00F8070318F90A0030F90778087307F6003F
:10285C007408F5000318F50AF81F352CF5037508F4
:10286C00F700770883120313FF00760884000A161A
:10287C008A1100200A168A11003A031D462C472C97
:10288C00092C0800F2007C2C3030F0007008F300AA
:10289C00A42C3130F0007008F300A42C3230F0007E
:1028AC007008F300A42C3330F0007008F300A42C53
:1028BC003430F0007008F300A42C3530F0007008B0
:1028CC00F300A42C3630F0007008F300A42C373041
:1028DC00F0007008F300A42C3830F0007008F300FE
:1028EC00A42C3930F0007008F300A42C7208F0000E
:1028FC00F1017108003A0319842CA42C7008003AD9
:10290C0003194A2C013A03194F2C033A0319542C7E
:10291C00013A0319592C073A03195E2C013A031991
:10292C00632C033A0319682C013A03196D2C0F3AE6
:10293C000319722C013A0319772CA42C7308080084
:10294C00F601F11FAA2CAB2CB22CF009F109F00AFC
:10295C000319F10AF601F60AF31FB52CB62CBF2C9D
:10296C00F209F309F20A0319F30A0130F4007408AE
:10297C00F606F701F801700871040319C62CC72C70
:10298C00FE2CF501F50AD52C01300310F00DF10DDC
:10299C00FF3E031DCB2C0130F4007408F507F11F2A
:1029AC00D82CD92CCA2C01300310F70DF80DFF3E92
:1029BC00031DDA2C71087302031DE62C70087202D9
:1029CC00031CE92CEA2CF12C7008F2027108031C90
:1029DC00F303F302771401300310F10CF00CFF3EFB
:1029EC00031DF22C0130F502031DFD2CFE2CD92CFD
:1029FC0076080319022D032D082DF709F809F70A9B
:102A0C000319F80A7808F1007708F00008000310A1
:102A1C00831203134C0D4D0DCE004E08D4005408F8
:102A2C00031D192D1A2D232D0030CD000030CC00A4
:102A3C000030CB000030CA00882D4A08CE004B086D
:102A4C00CF004C08D0004D08D1001F300310D10C22
:102A5C00D00CCF0CCE0CFF3E031D2C2D4E08D200FB
:102A6C005208D300CC17FF30CA05FF30CB05FF301E
:102A7C00CC050030CD059630D402D41F462D472D01
:102A8C00612D5408803A973E03184D2D4E2D4F2D35
:102A9C001A2D01300310CD0CCC0CCB0CCA0CFF3E04
:102AAC00031D502D0130CE004E08D407031D5F2DA1
:102ABC00602D4F2D782D20305402031C662D672D70
:102ACC00732D1A2D0130CE000310CA0DCB0DCC0D79
:102ADC00CD0DCE0B6A2D0130D4025408031D772D79
:102AEC00782D682D530803197C2D7D2D882DCA094E
:102AFC00CB09CC09CD09CA0A0319CB0A0319CC0A94
:102B0C000319CD0A0800831203135808AD005708A7
:102B1C00AC005608AB005508AA004230A900C830DA
:102B2C00A8000030A7000030A6000A128A158B23DB
:102B3C000A168A11831203132908CD002808CC0029
:102B4C002708CB002608CA000A168A110D250A167A
:102B5C008A11831203134A08D9005908DC0058085B
:102B6C00AF005708AE005608AD005508AC006430F5
:102B7C00F2000030F3005C08D900DA015908F000CB
:102B8C005A08F1000A168A1143230A168A11700892
:102B9C00F6007108F7000030F71BFF30F800F90061
:102BAC0001300A128A1507210A168A117908831234
:102BBC000313AB007808AA007708A9007608A800D0
:102BCC000A168A111F230A168A11831203132B0863
:102BDC00CD002A08CC002908CB002808CA000A1608
:102BEC008A110D250A168A11831203134A08DB0079
:102BFC005B08DE000A30F0000030F1005E08D900FE
:102C0C00DA015908F2005A08F3000A168A11A624B0
:102C1C000A168A11700883120313DB005B08DD00AF
:102C2C005D080A168A1148240A168A1183120313A6
:102C3C00D9005908DF005F08080083120313A101B3
:102C4C00F31F292E2A2E372EF009F109F209F30968
:102C5C00F00A0319F10A0319F20A0319F30AA10184
:102C6C00A10AF71F3A2E3B2E4A2EF409F509F60954
:102C7C00F709F40A0319F50A0319F60A0319F70AF6
:102C8C000130F8007808A1060030A5000030A4003F
:102C9C000030A3000030A2007308720471047004A9
:102CAC000319592E5A2EA72EA001A00A6A2E013004
:102CBC00F8000310F00DF10DF20DF30DF80B5F2E73
:102CCC000130F8007808A007F31F6D2E6E2E5D2ED4
:102CDC000130F8000310A20DA30DA40DA50DF80BE7
:102CEC00702E73087702031D852E72087602031D61
:102CFC00852E71087502031D852E70087402031C45
:102D0C00882E892E982E7008F4027108031C710FFE
:102D1C00F5027208031C720FF6027308031C730F82
:102D2C00F702221401300310F30CF20CF10CF00C2E
:102D3C00FF3E031D992E0130A002031DA62EA72EC7
:102D4C006E2E21080319AB2EAC2EB72EA209A309A7
:102D5C00A409A509A20A0319A30A0319A40A0319B1
:102D6C00A50A2508F3002408F2002308F100220824
:102D7C00F0000800831203135808CD005708CC004C
:102D8C005608CB005508CA000A168A110D250A16DA
:102D9C008A11831203134A08D9005908E200620809
:102DAC000A168A1148240A168A118312031358082A
:102DBC00AF005708AE005608AD005508AC006208CD
:102DCC00D900DA01DB01DC015C08F9005B08F800D2
:102DDC005A08F7005908F60001300A128A15072123
:102DEC000A168A11790883120313AB007808AA001B
:102DFC007708A9007608A8000A168A111F230A165C
:102E0C008A11831203132B08B7002A08B60029086D
:102E1C00B5002808B4004130B3002030B2000030B7
:102E2C00B1000030B0000A128A1184240A168A11EB
:102E3C00831203133308CD003208CC003108CB00C9
:102E4C003008CA000A168A110D250A168A11831237
:102E5C0003134A08DD005D08E4006408D900590832
:102E6C00E30063080A168A1148240A168A11831291
:102E7C000313D9005908E1000A30D9005908F000B1
:102E8C00630864020A128A1108200A168A11831236
:102E9C000313DA005A08E4006408D9005908E0006A
:102EAC0060080A168A1148240A168A118312031321
:102EBC0061080800831203135808CD005708CC0092
:102ECC005608CB005508CA000A168A110D250A1699
:102EDC008A11831203134A08D9005908E2006208C8
:102EEC000A168A1148240A168A1183120313D90070
:102EFC005908E1005808AF005708AE005608AD005D
:102F0C005508AC006208D900DA01DB01DC015C0871
:102F1C00F9005B08F8005A08F7005908F600013070
:102F2C000A128A1507210A168A11790883120313CB
:102F3C00AB007808AA007708A9007608A8000A1642
:102F4C008A111F230A168A11831203132B08B70048
:102F5C002A08B6002908B5002808B4004130B3008F
:102F6C002030B2000030B1000030B0000A128A11DB
:102F7C0084240A168A11831203133308CD003208F5
:102F8C00CC003108CB003008CA000A168A110D2576
:102F9C000A168A11831203134A08DD005D08E40047
:102FAC006408D9005908E30063080A168A114824FA
:102FBC000A168A110A3083120313D9005908F0003B
:102FCC00630864020A128A1108200A168A118312F5
:102FDC000313DA005A08E4006408D9005908E00029
:102FEC0060080A168A1148240A168A1183120313E0
:042FFC006108080060
:04400E00D4E0FFFFFC
:00000001FF
