:020000040000FA
:100000000A128A11FC2F00308A000408840A820731
:100010000034443441345634493449344934493441
:10002000493444340034613469347534753464348B
:080030006134613461340034D5
:100D740001300A128A11F2260A128A110800F200BE
:100D840083120313871472080A128A1137270A126E
:100D94008A118312031307140D30F100F10BD02EC6
:100DA4008312031307100800F5007503031DDB2EDF
:100DB400DC2EE42E74087F3E0A128A11F2260A12EF
:100DC4008A11F12E02307506031DE92EEA2EF12E4A
:100DD4007408BF3E0A128A11F2260A128A11080008
:100DE400F30083120313871073080A128A1137273A
:100DF4000A128A118312031307140730F2007D309C
:100E0400F100F10B032FF20B032F831203130710CE
:100E1400C730F1000D2FF10B0C2F102F112F0800EC
:100E2400F500F301F401292F7308750784000A12F1
:100E34008A1103200A128A110A128A11C1260A127F
:100E44008A110130F3070318F40A0030F407730819
:100E5400750784000A128A1103200A128A11003AC3
:100E6400031D352F362F162F0800F000701C3B2F62
:100E74003C2F402F831203130514432F83120313B3
:100E84000510F01C462F472F492F85144A2F851033
:100E9400701D4D2F4E2F502F0515512F0511F01D8C
:100EA400542F552F572F8515582F8511701E5B2FE2
:100EB4005C2F5E2F05165F2F0512F01E622F632F25
:100EC400652F8516662F8512701F692F6A2F6C2F68
:100ED40005176D2F0513F01F702F712F732F8517B2
:100EE400742F85130800831603178901880183165C
:100EF400031385010330880087010A128A11B6277B
:100F04000A128A110A128A11BA260A128A11F401E3
:100F1400F40A01300A128A11D6260A128A110B30F9
:100F24000A128A1112270A128A11F401F40A0230F1
:100F34000A128A11D6260A128A1101300A128A115B
:100F440012270A128A110B30F8002630F7005D30A0
:100F5400F600F60BAB2FF70BAB2FF80BAB2FB22F22
:100F6400842F0A128A1100281430F5007930F40015
:100F7400F40BBA2FF50BBA2FBF2F30300A128A1197
:100F8400F2260A128A110730F5007D30F400F40BC2
:100F9400C92FF50BC92F30300A128A11F2260A1212
:100FA4008A113530F400F40BD52F30300A128A112F
:100FB400F2260A128A1138300A128A11F2260A120B
:100FC4008A1110300A128A11F2260A128A1101308B
:100FD4000A128A11F2260A128A1106300A128A119A
:100FE400F2260A128A110F300A128A11F2260A1204
:0C0FF4008A11080083010A128A11752F6F
:04400E00D4E0FFFFFC
:00000001FF
