:020000040000FA
:060000000A128A11EC2F28
:10001A007B3464008001840A040603190034040650
:10002A000F288312031327088039A8002808B10073
:10003A002708A8002807A9002908B800A61F26280B
:10004A00272828283814380803192C282D283D2851
:10005A00380A031D312832283A280030A700003018
:10006A00A6000030A5000030A400A617A701452865
:10007A000030A7000030A6000030A5000030A40020
:10008A0023088039A8002808B1062308A8002807F1
:10009A00A9002908B900A21F532854285528391441
:1000AA003908031959285A286A28390A031D5E286B
:1000BA005F2867280030A3000030A2000030A100AA
:1000CA000030A000A217A30172280030A30000305C
:1000DA00A2000030A1000030A0002308220421045D
:1000EA002004031D79287A2893280030A7000030BD
:1000FA00A6000030A5000030A4008030A6047F309E
:10010A00A7043108A8002808A7042708A30026087E
:10011A00A2002508A1002408A000F2293808031D1E
:10012A0097289828A1280030A3000030A2000030A8
:10013A00A1000030A000F2293808A800A901290866
:10014A00AB0039082802AA00031CAB032A087F3E29
:10015A00B2002B080318013E003EB3002708B00086
:10016A002608AF002508AE002408AD000030A7001D
:10017A000030A6000030A5000030A4000030B7000F
:10018A000030B6000030B5000030B400B9011729BC
:10019A0039080319D128D228F2280130A8000310FF
:1001AA00AD0DAE0DAF0DB00DA80BD4280130A800CF
:1001BA000310A40DA50DA60DA70DA80BDD28B71FCA
:1001CA00E728E828E92824140130A8000310B40D10
:1001DA00B50DB60DB70DA80BEB2823083002031D89
:1001EA00002922082F02031D002921082E02031DBF
:1001FA00002920082D02031C032904291329371773
:10020A002008AD022108031C210FAE022208031C9C
:10021A00220FAF022308031C230FB0020130A800EB
:10022A002808B9071A303902031C1C291D29CD28B0
:10023A0030082F042E042D040319242925294429C2
:10024A00341444290130A8000310A40DA50DA60DED
:10025A00A70DA80B2929B71F3329342935292414B6
:10026A000130A8000310B40DB50DB60DB70DA80BDB
:10027A003729FF30B2070318B30AFF30B307A61FA6
:10028A00472948292729B901B71F4C294D29692926
:10029A00FF303405A800FF303505A900FF303605C8
:1002AA00AA007F303705AB002B082A04290428044A
:1002BA000319602961296429B901B90A6929241C29
:1002CA006729682969296129390803196D296E295D
:1002DA009F290130A407003003180130A507003018
:1002EA0003180130A607003003180130A707271C9E
:1002FA007F2980299F292408A8002508A900260803
:10030A00AA002708AB000130AC002B0DAB0CAA0CDD
:10031A00A90CA80CAC0B8A292B08A7002A08A6004E
:10032A002908A5002808A4000130B2070318B30A57
:10033A000030B3073308803AFF0080307F02031D84
:10034A00A829FF303202031CAB29AC29BA29FF3095
:10035A0083120313B2000030B3000030A70000304C
:10036A00A6000030A5000030A4008312031333084E
:10037A00803AFF0080307F02031DC5290130320216
:10038A000318C829C929D62983120313B201B30154
:10039A000030A7000030A6000030A5000030A400FD
:1003AA00B101831203133208A8002808B800381CC8
:1003BA00DF29E029E229A617E6297F30A8002808C4
:1003CA00A6053808A8000310280CA9002908A700C8
:1003DA003108A8002808A7048A2808007308803969
:1003EA0083120313A0002008F8007308A000200756
:1003FA00A1002108FA00F21F032A042A052A7A1406
:10040A007A080319092A0A2A1A2A7A0A031D0E2ABD
:10041A000F2A172A0030F3000030F2000030F100F2
:10042A000030F000F217F301222A0030F300003006
:10043A00F2000030F1000030F00077088039A000A7
:10044A002008F9007908780603192C2A2D2A2E2A61
:10045A0078177708A0002007A1002108F900F61FE5
:10046A00372A382A392A7914790803193D2A3E2A63
:10047A004E2A790A031D422A432A4B2A0030F700E2
:10048A000030F6000030F5000030F400F617F701EE
:10049A00562A0030F7000030F6000030F500003030
:1004AA00F4007A08790203185B2A5C2AA02A781FCA
:1004BA005F2A602A642A8030A0002008F8067A0899
:1004CA00A0002008FB007908A0002008FA007B0899
:1004DA00A0002008F9007008A0002008FB0074089A
:1004EA00A0002008F0007B08A0002008F400710892
:1004FA00A0002008FB007508A0002008F1007B0876
:10050A00A0002008F5007208A0002008FB00760869
:10051A00A0002008F2007B08A0002008F60073085B
:10052A00A0002008FB007708A0002008F3007B0841
:10053A00A0002008F700FB017908A000A10121080A
:10054A00A3007A082002A200031CA3032308803A0E
:10055A00FF0080307F02031DB42A1A302202031CD6
:10056A00B72AB82AF92A7308720471047004031DA1
:10057A00BF2AC12A0130C22A003083120313A00005
:10058A002008FB000030F3000030F2000030F100D8
:10059A000030F0007908A0002008FA00FF2A7B1C2E
:1005AA00D72AD82AE32A7B0883120313A000031050
:1005BA00200C0138A1002108FB00E52A0310FB0CDE
:1005CA00701CE82AE92AEA2AFB170130831203136E
:1005DA00A000730DF30CF20CF10CF00CA00BEE2A38
:1005EA000130A0002008FA0779087A02031CFE2AC3
:1005FA00FF2AD42A781B022B032B522B7A08031DBD
:10060A00072B082B112B0030F3000030F2000030CA
:10061A00F1000030F0008A2C7408F0077508031105
:10062A000318013E03191A2BF10776080311031860
:10063A00013E0319212BF207770803110318013E23
:10064A000319282BF307731C2B2B2C2B0A2C7B1C2E
:10065A002F2B302B3B2B7B0883120313A000031094
:10066A00200C0138A1002108FB003D2B0310FB0CD4
:10067A00701C402B412B422BFB17013083120313B2
:10068A00A000730DF30CF20CF10CF00CA00B462B2E
:10069A000130A0002008FA070A2C7308803AFF00EC
:1006AA007708803A7F02031D642B76087202031DC5
:1006BA00642B75087102031D642B740870020318F9
:1006CA00672B682BC22BFF3083120313A000FF3065
:1006DA00A100FF30A200FF30A3007408A40075082F
:1006EA00A5007608A6007708A7007008A40271087A
:1006FA00031C710F812B822BA5027208031C720F37
:10070A00872B882BA6027308031C730F8D2B8E2B45
:10071A00A7022408A00725080318250F952B962B56
:10072A00A10726080318260F9B2B9C2BA207270834
:10073A000318270AA3072308F3002208F200210856
:10074A00F1002008F0008030A0002008F806FB091C
:10075A00FB0A7B08031DB22BB32BD02B0130F00709
:10076A00003003180130F107003003180130F20796
:10077A00003003180130F307D02B7408F002750813
:10078A00031C750FF1027608031C760FF202770834
:10079A00031C770FF3027308720471047004031DBB
:1007AA00D72BD82B062C7B08031DDC2BDD2B062C24
:1007BA000030F3000030F2000030F1000030F000A9
:1007CA008A2C013083120313A0000310F00DF10DDF
:1007DA00F20DF30DA00BEA2BFB1FF42BF52BF62BD6
:1007EA0070147B1CF92BFA2BFD2B0314FB0DFF2B2A
:1007FA000310FB0D7A080319032C042C062C013074
:10080A00FA02F21F092C0A2CE62BF901FB1F0E2C07
:10081A000F2C1D2C7B087F390319142C152C182C2E
:10082A00F901F90A1D2C701C1B2C1C2C1D2C152CD3
:10083A0079080319212C222C582C0130F00700309A
:10084A0003180130F107003003180130F2070030B5
:10085A0003180130F307731C332C342C582C7008FE
:10086A0083120313A0007108A1007208A200730882
:10087A00A3000130A400230DA30CA20CA10CA00C10
:10088A00A40B402C2308F3002208F2002108F100EF
:10089A002008F0007A0A0319532C542C582C0130E2
:1008AA00A0002008FA077A0A03195C2C5D2C622C36
:1008BA007A08031D612C622C702C0030F300003082
:1008CA00F2000030F1000030F0007A08031D6E2CAF
:1008DA006F2C702CF8017A1C732C742C762CF2175E
:1008EA007C2C7F3083120313A0002008F2057A08BB
:1008FA0083120313A0000310200CA1002108F300A7
:10090A00F81F882C892C8A2CF317080083120313EA
:10091A0033088039B8003808BD003308B8003807F2
:10092A00B9003908C300B21F9B2C9C2C9D2C431480
:10093A0043080319A12CA22CB12C430A031DA62C8F
:10094A00A72CAF2C0030B3000030B2000030B10049
:10095A000030B000B217B92C0030B3000030B2003A
:10096A000030B1000030B00037088039B8003808CC
:10097A00BD063708B8003807B9003908C200B61FE3
:10098A00C72CC82CC92C421442080319CD2CCE2CD2
:10099A00DD2C420A031DD22CD32CDB2C0030B700ED
:1009AA000030B6000030B5000030B400B617E52CB0
:1009BA000030B7000030B6000030B5000030B40097
:1009CA0042080319E92CEA2CEF2C4308031DEE2CEC
:1009DA00EF2CF82C0030B3000030B2000030B10028
:1009EA000030B000EB2F3008B8003808F0003608A5
:1009FA000A168A1139260A128A11710883120313F8
:100A0A00C9007008C8004808B800B901BA01BB019A
:100A1A003B08C1003A08C0003908BF003808BE00C8
:100A2A004908B800B901BA01BB013B08C7003A0836
:100A3A00C6003908C5003808C4003108B8003808AB
:100A4A00F00035080A168A1139260A128A11710825
:100A5A0083120313C9007008C8004808B800B90116
:100A6A00BA01BB013808BE07390803110318013E51
:100A7A000319402DBF073A0803110318013E031951
:100A8A00472DC0073B0803110318013E03194E2DD9
:100A9A00C1074908B800B901BA01BB013808C4073F
:100AAA00390803110318013E03195C2DC5073A08DA
:100ABA0003110318013E0319632DC6073B080311EE
:100ACA000318013E03196A2DC7073208B80038080F
:100ADA00F00034080A168A1139260A128A11710896
:100AEA0083120313C9007008C8004808B800B90186
:100AFA00BA01BB013808BE07390803110318013EC1
:100B0A000319882DBF073A0803110318013E031978
:100B1A008F2DC0073B0803110318013E0319962DB8
:100B2A00C1074908B800B901BA01BB013808C407AE
:100B3A00390803110318013E0319A42DC5073A0801
:100B4A0003110318013E0319AB2DC6073B08031115
:100B5A000318013E0319B22DC7070830B800031065
:100B6A00BE0DBF0DC00DC10DB80BB42D3108B800B4
:100B7A003808F00034080A168A1139260A128A112E
:100B8A00710883120313C9007008C8004808B80026
:100B9A004908B900BA01BB013808BE073908031170
:100BAA000318013E0319DA2DBF073A080311031887
:100BBA00013E0319E12DC0073B0803110318013E4A
:100BCA000319E82DC1073008B8003808F0003508C5
:100BDA000A168A1139260A128A1171088312031316
:100BEA00C9007008C8004808B8004908B900BA0125
:100BFA00BB013808BE07390803110318013E03195F
:100C0A00072EBF073A0803110318013E03190E2ED7
:100C1A00C0073B0803110318013E0319152EC1072B
:100C2A000830B8000310BE0DBF0DC00DC10DB80BC2
:100C3A00172E3008B8003808F00034080A168A114E
:100C4A0039260A128A11710883120313C90070081F
:100C5A00C8004808B8004908B900BA01BB013808F9
:100C6A00BE07390803110318013E03193D2EBF07B9
:100C7A003A0803110318013E0319442EC0073B0822
:100C8A0003110318013E03194B2EC1073108B8009E
:100C9A003808F00036080A168A1139260A128A110B
:100CAA00710883120313C9007008C8004808B80005
:100CBA004908B900BA01BB013808C4073908031149
:100CCA000318013E03196A2EC5073A0803110318CF
:100CDA00013E0319712EC6073B0803110318013E92
:100CEA000319782EC7073208B8003808F00035080B
:100CFA000A168A1139260A128A11710883120313F5
:100D0A00C9007008C8004808B8004908B900BA0103
:100D1A00BB013808C407390803110318013E031937
:100D2A00972EC5073A0803110318013E03199E2E90
:100D3A00C6073B0803110318013E0319A52EC7076E
:100D4A003208B8003808F00036080A168A1139261F
:100D5A000A128A11710883120313C9007008C800A5
:100D6A004808B8004908B900BA01BB0108300310A5
:100D7A00B80DB90DBA0DBB0DFF3E031DBC2E3808C8
:100D8A00C407390803110318013E0319CD2EC507FC
:100D9A003A0803110318013E0319D42EC6073B086B
:100DAA0003110318013E0319DB2EC7073E08B800DA
:100DBA003F08B9004008BA004108BB0018300310C8
:100DCA00BB0CBA0CB90CB80CFF3E031DE42E380854
:100DDA00C407390803110318013E0319F52EC50784
:100DEA003A0803110318013E0319FC2EC6073B08F3
:100DFA0003110318013E0319032FC7070830B8006F
:100E0A000310BE0DBF0DC00DC10DB80B052F430851
:100E1A004207B800B901B90D3808823EC80039083E
:100E2A000318013EFF3EC900372F0130B8000310F6
:100E3A00C40DC50DC60DC70DB80B1C2FC11F262F1B
:100E4A00272F282F44140130B8000310BE0DBF0D00
:100E5A00C00DC10DB80B2A2FFF30C8070318C90AE5
:100E6A00FF30C907C61F3A2F3B2F1A2FC201C11FD5
:100E7A003F2F402F5C2FFF303E05B800FF303F0563
:100E8A00B900FF304005BA007F304105BB003B087E
:100E9A003A04390438040319532F542F572FC20127
:100EAA00C20A5C2F441C5A2F5B2F5C2F542F420816
:100EBA000319602F612F922F0130C40700300318E5
:100ECA000130C507003003180130C6070030031887
:100EDA000130C707471C722F732F922F4408B8009E
:100EEA004508B9004608BA004708BB000130BC00F3
:100EFA003B0DBB0CBA0CB90CB80CBC0B7D2F3B08D4
:100F0A00C7003A08C6003908C5003808C4000130CD
:100F1A00C8070318C90A0030C9074908803AFF0000
:100F2A0080307F02031D9B2FFF304802031C9E2F37
:100F3A009F2FAA2F7F3083120313C7008030C60069
:100F4A000030C5000030C400DF2F831203134908A4
:100F5A00803AFF0080307F02031DB52F013048021E
:100F6A000318B82FB92FC52F003083120313C700F7
:100F7A000030C6000030C5000030C400BD01DF2FBC
:100F8A00831203134808B8003808C300FF30C405A9
:100F9A00FF30C5057F30C6050030C705431CD62F74
:100FAA00D72FD82FC6174308B8000310380CB9003A
:100FBA003908C7003D08B8003808C7044708B30015
:100FCA004608B2004508B1004408B00008000A12F9
:100FDA008A110D200A128A11EC008313A0308400B2
:100FEA00BC300A128A110E200A128A11EB018301FF
:060FFA000A128A15832D86
:10100800F300F201731C09280A280E287008F10061
:101018007108F2070310F00D0310F30C7308031D99
:101028001628172806287208080083120313A1013E
:10103800F31F1F2820282D28F009F109F209F309C8
:10104800F00A0319F10A0319F20A0319F30AA101B4
:10105800A10AF71F302831284028F409F509F609B4
:10106800F709F40A0319F50A0319F60A0319F70A26
:101078000130F8007808A1060030A5000030A4006F
:101088000030A3000030A2007308720471047004D9
:1010980003194F2850289D28A001A00A6028013074
:1010A800F8000310F00DF10DF20DF30DF80B5528B3
:1010B8000130F8007808A007F31F63286428532834
:1010C8000130F8000310A20DA30DA40DA50DF80B17
:1010D800662873087702031D7B2872087602031DB1
:1010E8007B2871087502031D7B2870087402031C95
:1010F8007E287F288E287008F4027108031C710F5F
:10110800F5027208031C720FF6027308031C730FB2
:10111800F702221401300310F30CF20CF10CF00C5E
:10112800FF3E031D8F280130A002031D9C289D2827
:10113800642821080319A128A228AD28A209A30917
:10114800A409A509A20A0319A30A0319A40A0319E1
:10115800A50A2508F3002408F2002308F100220854
:10116800F0000800831203135808CD005708CC007C
:101178005608CB005508CA000A168A1184270A1295
:101188008A15831203134A08D9005908E200620835
:101198000A168A1126270A128A1583120313580879
:1011A800AF005708AE005608AD005508AC006208FD
:1011B800D900DA01DB01DC015C08F3005B08F2000E
:1011C8005A08F1005908F00001300A128A15F62170
:1011D8000A128A15730883120313AB007208AA0057
:1011E8007108A9007008A8000A168A1115260A12A3
:1011F8008A15831203132B08B7002A08B60029089A
:10120800B5002808B4004130B3002030B2000030E7
:10121800B1000030B0000A128A118B240A128A1514
:10122800831203133308CD003208CC003108CB00F9
:101238003008CA000A168A1184270A128A158312EE
:1012480003134A08DD005D08E4006408D900590862
:10125800E30063080A168A1126270A128A158312E0
:101268000313D9005908E1000A30D9005908F000E1
:10127800630864020A128A1504200A128A15831266
:101288000313DA005A08E4006408D9005908E0009A
:1012980060080A168A1126270A128A158312031370
:1012A80061080800831203135808CD005708CC00C2
:1012B8005608CB005508CA000A168A1184270A1254
:1012C8008A15831203134A08D9005908E2006208F4
:1012D8000A168A1126270A128A1583120313D900BF
:1012E8005908E1005808AF005708AE005608AD008D
:1012F8005508AC006208D900DA01DB01DC015C08A2
:10130800F3005B08F2005A08F1005908F0000130B8
:101318000A128A15F6210A128A1573088312031312
:10132800AB007208AA007108A9007008A8000A1684
:101338008A1115260A128A15831203132B08B7007F
:101348002A08B6002908B5002808B4004130B300BF
:101358002030B2000030B1000030B0000A128A110B
:101368008B240A128A15831203133308CD0032081E
:10137800CC003108CB003008CA000A168A1184272D
:101388000A128A15831203134A08DD005D08E40077
:101398006408D9005908E30063080A168A11262749
:1013A8000A128A150A3083120313D9005908F0006B
:1013B800630864020A128A1504200A128A15831225
:1013C8000313DA005A08E4006408D9005908E00059
:1013D80060080A168A1126270A128A15831203132F
:1013E80061080800F80078080319FB29FC29102A6D
:1013F800F31FFF29002A102A7009FA007109FB005F
:101408007209FC007309FD00FA0A0319FB0A0319A3
:10141800FC0A0319FD0A182A7308FD007208FC006B
:101428007108FB007008FA007308720471047004F4
:10143800031D1F2A202A292A0030F3000030F20059
:101448000030F1000030F000AF2A9630F400740844
:10145800F9003B2A0130F4007408F9070130031041
:10146800FD0CFC0CFB0CFA0CFF3E031D332AFE306E
:101478007D05031D402A412A2E2A5D2A0130F400E9
:101488007408F9070130FA07003003180130FB0728
:10149800003003180130FC07003003180130FD0745
:1014A80001300310FD0CFC0CFB0CFA0CFF3E031D75
:1014B800552AFF307D05031D622A632A422A6F2AB6
:1014C8000130F9020130F4000310FA0DFB0DFC0D98
:1014D800FD0DF40B682AFC1B722A732A792A023044
:1014E80079020318782A792A642A79187C2A7D2AAD
:1014F800852AFF30FA05FF30FB057F30FC05FF30F9
:10150800FD050310F90C7908F400F501F601F7015F
:1015180018300310F40DF50DF60DF70DFF3E031D01
:101528008D2A7408FA047508FB047608FC04770809
:10153800FD0478080319A12AA22AA72AF31FA52ABD
:10154800A62AA72AFD177D08F3007C08F2007B086D
:10155800F1007A08F0000800831203132608AA0095
:101568002708AB002808AC002908AD000630031096
:10157800AA0DAB0DAC0DAD0DFF3E031DBB2A2D080A
:10158800F3002C08F2002B08F1002A08F0002608C6
:10159800AE002708AF002808B0002908B1000630BF
:1015A8000310AE0DAF0DB00DB10DFF3E031DD42AD3
:1015B8000030B2000930B3003D30B4000030B5004F
:1015C8002E08B2022F08031C2F0FEB2AEC2AB302B5
:1015D8003008031C300FF12AF22AB4023108031C28
:1015E800310FF72AF82AB5023508F7003408F60053
:1015F8003308F5003208F4000A128A1519200A1275
:101608008A157108FA007008F90001307A02003072
:1016180003197902031C112B122B6E2B831203134F
:101628002608AA002708AB002808AC002908AD0046
:1016380004300310AA0DAB0DAC0DAD0DFF3E031D1C
:101648001D2B2D08F3002C08F2002B08F1002A08A6
:10165800F0002608AE002708AF002808B0002908C7
:10166800B10004300310AE0DAF0DB00DB10DFF3E4B
:10167800031D362B0030B2000930B3003D30B400F2
:101688000030B5002E08B2022F08031C2F0F4D2B77
:101698004E2BB3023008031C300F532B542BB402CB
:1016A8003108031C310F592B5A2BB5023508F700A6
:1016B8003408F6003308F5003208F4000A128A15D7
:1016C80019200A128A157108FA007008F9008316A1
:1016D8000313181501307A02003003197902031830
:1016E800762B772B892B7908831603139900181208
:1016F8008312031398178316031387170717831288
:10170800031318168316031398160800831203137D
:101718005808CD005708CC005608CB005508CA0019
:101728000A168A1184270A128A15831203134A0893
:10173800D9005908E10061080A168A1126270A12F9
:101748008A15413083120313B3002030B2000030F1
:10175800B1000030B0006108D900DA01DB01DC011A
:101768005C08F3005B08F2005A08F1005908F00021
:1017780001300A128A15F6210A128A157308831293
:101788000313AB007208AA007108A9007008A8002A
:101798005808AF005708AE005608AD005508AC0011
:1017A8000A168A1115260A128A15831203132B08A2
:1017B800B7002A08B6002908B5002808B4000A129C
:1017C8008A118B240A128A15831203133308E60040
:1017D8003208E5003108E4003008E3006608CD006F
:1017E8006508CC006408CB006308CA000A168A1191
:1017F80084270A128A15831203134A08D900590844
:10180800E20062080A168A1126270A128A15413050
:1018180083120313B3002030B2000030B10000304F
:10182800B0006208D900DA01DB01DC015C08F300D2
:101838005B08F2005A08F1005908F00001300A125A
:101848008A15F6210A128A15730883120313AB004E
:101858007208AA007108A9007008A8006608AF00FD
:101868006508AE006408AD006308AC000A168A116A
:1018780015260A128A15831203132B08B7002A08A3
:10188800B6002908B5002808B4000A128A118B246A
:101898000A128A15831203133308E6003208E5009A
:1018A8003108E4003008E3006608CD006508CC0084
:1018B8006408CB006308CA000A168A1184270A1232
:1018C8008A15831203134A08D9005908DF005F08F4
:1018D8000A168A1126270A128A1583120313D900B9
:1018E8005908E00060080800F300831203131F146E
:1018F8009F141F083F3940389F00831603131F1297
:101908009F123A2D831603170814C330831203134A
:101918009F05831603130514722D83160317881465
:10192800831203131F08C33904389F008316031357
:101938008514722D831603170815831203131F08C5
:10194800C33908389F00831603130515722D8316B3
:1019580003178815831203131F08C3390C389F0017
:10196800831603138515722D831603170816831221
:1019780003131F08C33910389F00831603138516F5
:10198800722D831603178816831203131F08C33991
:1019980014389F00831603130914722D8316031736
:1019A8000817831203131F08C33918389F008316BA
:1019B80003138914722D83160317881783120313D0
:1019C8001F08C3391C389F00831603130915722D8D
:1019D800831603170914831203131F08C339203809
:1019E8009F00831603130615722D83160317891497
:1019F800831203131F08C33924389F008316031367
:101A08008615722D831603170915831203131F08F1
:101A1800C33928389F00831603138614722D831642
:101A280003178915831203131F08C3392C389F0025
:101A3800831603130616722D8316031709168312CD
:101A480003131F08C33930389F0083160313061485
:101A5800722D831603178916831203131F08C339BF
:101A680034389F00831603138616722D7308F1000D
:101A7800F2017208003A0319422D722D7108003ADA
:101A88000319862C013A0319912C033A03199E2C49
:101A9800013A0319AB2C073A0319B82C013A031978
:101AA800C52C033A0319D22C013A0319DF2C0F3A3B
:101AB8000319EC2C013A0319F92C033A0319062DE2
:101AC800013A0319132D073A0319202D013A031976
:101AD8002D2D722D9F13822D9F17822D7008F100D6
:101AE800F2017208003A03197A2D822D7108003A22
:101AF80003196E2D013A0319702D822D08008316E3
:101B0800031789018801831603138501860187015C
:101B1800F0010C300A128A1578240A128A15F0018D
:101B28000A300A128A1578240A128A150A168A11A6
:101B3800E0260A128A15003083120313A900003028
:101B4800A8002530A7008030A6000A128A15B02206
:101B58000A128A15C03084000530FF008313800103
:101B6800840AFF0BB22DC53084000530FF008001C8
:101B7800840AFF0BBB2D003083160313BF0000300F
:101B8800BE000030BD000030BC00831203131F08E4
:101B9800C33928389F00A53083120313E700E70BE9
:101BA800D32DD62D831203139F149F18DC2DDD2D02
:101BB800D92D1E08E700670883160313BB004230BF
:101BC80083120313A3004C30A2000030A1000030A0
:101BD800A000831603133B0883120313E700E801F0
:101BE800E901EA016A08F3006908F2006808F100EF
:101BF8006708F00001300A128A15F6210A128A15C0
:101C0800730883120313A7007208A6007108A500C1
:101C18007008A4000A128A1116200A128A15831263
:101C28000313230883160313B9008312031322082E
:101C380083160313B80083120313210883160313B2
:101C4800B70083120313200883160313B600831208
:101C580003130C131F08C33930389F00A5308312B3
:101C68000313E700E70B362E392E831203139F1454
:101C78009F183F2E402E3C2E1E08E700670883164B
:101C88000313BA00423083120313A3004C30A2009E
:101C98000030A1000030A000831603133A08831215
:101CA8000313E700E801E901EA016A08F30069089B
:101CB800F2006808F1006708F00001300A128A157E
:101CC800F6210A128A15730883120313A7007208F3
:101CD800A6007108A5007008A4000A128A1116202F
:101CE8000A128A1583120313230883160313B500F7
:101CF80083120313220883160313B40083120313F9
:101D0800210883160313B3008312031320088316D4
:101D18000313B200831203130C130230E7006708A1
:101D2800F40001300A168A11D9250A128A150130E1
:101D3800F3008030F4000A168A119E260A128A15CA
:101D4800073083120313E7006708F40001300A160E
:101D58008A11D9250A128A150530F3008030F4005B
:101D68000A168A119E260A128A150C30831203134A
:101D7800E7006708F40001300A168A11D9250A120B
:101D88008A150930F3008030F4000A168A119E265D
:101D98000A128A15F401F40A02300A168A11D925A2
:101DA8000A128A1583160313390883120313D800FD
:101DB80083160313380883120313D70083160313FB
:101DC800370883120313D6008316031336088312C9
:101DD8000313D5000A128A1556210A128A1583128E
:101DE8000313E700670883160313C0002E3083121D
:101DF8000313E700670883160313C1003908831229
:101E08000313D80083160313380883120313D7006B
:101E180083160313370883120313D600831603139C
:101E2800360883120313D5000A128A15B6200A123F
:101E38008A1583120313E700670883160313C20089
:101E4800390883120313D800831603133808831242
:101E58000313D70083160313370883120313D6001E
:101E680083160313360883120313D5000A128A1542
:101E78008A230A128A1583120313E7006708831658
:101E88000313C300C030F3000030F4000A168A11AF
:101E98009E260A128A15063083120313E700670884
:101EA800F40002300A168A11D9250A128A158316F7
:101EB8000313350883120313D80083160313340859
:101EC80083120313D70083160313330883120313F3
:101ED800D60083160313320883120313D5000A129F
:101EE8008A1556210A128A1583120313E700670818
:101EF80083160313C5002E3083120313E700670807
:101F080083160313C600350883120313D8008316FB
:101F18000313340883120313D700831603133308FB
:101F280083120313D6008316031332088312031394
:101F3800D5000A128A15B6200A128A1583120313CD
:101F4800E700670883160313C700350883120313D5
:101F5800D80083160313340883120313D70083169B
:101F68000313330883120313D600831603133208AE
:101F780083120313D5000A128A158A230A128A15B6
:101F880083120313E700670883160313C800C530DC
:101F9800F3000030F4000A168A119E260A128A15E8
:101FA800033083120313E9008A30E8005530E70054
:101FB800E70BDC2FE80BDC2FE90BDC2F8316031370
:101FC8003B080A168A11C4250A128A1583160313B8
:101FD8003A080A168A11C4250A128A158230831211
:101FE8000313E800DD30E700E70BF82FE80BF82FC4
:101FF800C92D0A128A110028FF1B0A2883137F188B
:1020080083170008840A0319FF0A080010308A00A1
:102018000408840A82070034503431343A340034D6
:10202800503432343A340034503433343A3400348F
:102B5E00F20083120313871472080A168A11602674
:102B6E000A168A118312031307140D30F100F10BAC
:102B7E00BE2D8312031307100800F20083160313F1
:102B8E00981CCA2DCB2DC52D7208831203139900E4
:102B9E008230F100DD30F000F00BD32DF10BD32D90
:102BAE00D82D0800F5007503031DDE2DDF2DE72D52
:102BBE0074087F3E0A168A11F5250A168A11F42D1D
:102BCE0002307506031DEC2DED2DF42D7408BF3E5D
:102BDE000A168A11F5250A168A110800F3008312C7
:102BEE000313871073080A168A1160260A168A11B3
:102BFE008312031307140730F2007D30F100F10B3E
:102C0E00062EF20B062E831203130710C730F100A7
:102C1E00102EF10B0F2E132E142E0800803083125F
:102C2E000313AB062F08F3002E08F2002D08F10057
:102C3E002C08F0002B08F7002A08F6002908F500EA
:102C4E002808F4000A128A11F3210A168A11730851
:102C5E0083120313AB007208AA007108A900700852
:102C6E00A8000800F800F401F5017008F200F30165
:102C7E007208F6007308F700781C462E472E4D2E6C
:102C8E007608F4070318F50A7708F50701300310E4
:102C9E00F60DF70DFF3E031D4E2E0310F80C7808AF
:102CAE00031D5A2E5B2E432E7508F1007408F0009A
:102CBE000800F000701C642E652E692E831203131B
:102CCE0005146C2E831203130510F01C6F2E702E3C
:102CDE00722E8514732E8510701D762E772E792EFA
:102CEE0005157A2E0511F01D7D2E7E2E802E851552
:102CFE00812E8511701E842E852E872E0516882E08
:102D0E000512F01E8B2E8C2E8E2E85168F2E851272
:102D1E00701F922E932E952E0517962E0513F01FCB
:102D2E00992E9A2E9C2E85179D2E85130800F8013C
:102D3E00F901C32E78087307F6007408F50003181E
:102D4E00F50AF81FAB2EF5037508F7007708831206
:102D5E000313FF00760884000A168A1100200A1653
:102D6E008A110A168A11AF250A168A110130F80740
:102D7E000318F90A0030F90778087307F60074088B
:102D8E00F5000318F50AF81FCD2EF5037508F700A8
:102D9E00770883120313FF00760884000A168A113F
:102DAE0000200A168A11003A031DDE2EDF2EA12EF8
:102DBE0008001430F5007930F400F40BE42EF50B16
:102DCE00E42EE92E30300A168A11F5250A168A11DC
:102DDE000730F5007D30F400F40BF32EF50BF32ED7
:102DEE0030300A168A11F5250A168A113530F4008C
:102DFE00F40BFF2E30300A168A11F5250A168A11A9
:102E0E0038300A168A11F5250A168A1110300A165C
:102E1E008A11F5250A168A1101300A168A11F5252E
:102E2E000A168A1106300A168A11F5250A168A1113
:102E3E000F300A168A11F5250A168A110800F200BB
:102E4E005A2F3030F0007008F300822F3130F0002E
:102E5E007008F300822F3230F0007008F300822FDA
:102E6E003330F0007008F300822F3430F000700819
:102E7E00F300822F3530F0007008F300822F3630C9
:102E8E00F0007008F300822F3730F0007008F30066
:102E9E00822F3830F0007008F300822F3930F000A6
:102EAE007008F300822F7208F000F1017108003AE9
:102EBE000319622F822F7008003A0319282F013A46
:102ECE0003192D2F033A0319322F013A0319372F05
:102EDE00073A03193C2F013A0319412F033A0319FC
:102EEE00462F013A03194B2F0F3A0319502F013A6F
:102EFE000319552F822F7308080003108312031332
:102F0E004C0D4D0DCE004E08D4005408031D902FCD
:102F1E00912F9A2F0030CD000030CC000030CB0026
:102F2E000030CA00FF2F4A08CE004B08CF004C08D5
:102F3E00D0004D08D1001F300310D10CD00CCF0C97
:102F4E00CE0CFF3E031DA32F4E08D2005208D30015
:102F5E00CC17FF30CA05FF30CB05FF30CC05003053
:102F6E00CD059630D402D41FBD2FBE2FD82F5408B6
:102F7E00803A973E0318C42FC52FC62F912F0130CC
:102F8E000310CD0CCC0CCB0CCA0CFF3E031DC72F6F
:102F9E000130CE004E08D407031DD62FD72FC62FD3
:102FAE00EF2F20305402031CDD2FDE2FEA2F912F3E
:102FBE000130CE000310CA0DCB0DCC0DCD0DCE0BB6
:102FCE00E12F0130D4025408031DEE2FEF2FDF2F17
:102FDE0053080319F32FF42FFF2FCA09CB09CC097D
:102FEE00CD09CA0A0319CB0A0319CC0A0319CD0A53
:022FFE000800C9
:04400E00D4E0FFFFFC
:00000001FF
